{
  "contractName": "Getters",
  "abi": [
    {
      "constant": true,
      "inputs": [],
      "name": "name",
      "outputs": [
        {
          "internalType": "string",
          "name": "",
          "type": "string"
        }
      ],
      "payable": false,
      "stateMutability": "view",
      "type": "function"
    },
    {
      "constant": true,
      "inputs": [],
      "name": "symbol",
      "outputs": [
        {
          "internalType": "string",
          "name": "",
          "type": "string"
        }
      ],
      "payable": false,
      "stateMutability": "view",
      "type": "function"
    },
    {
      "constant": true,
      "inputs": [],
      "name": "decimals",
      "outputs": [
        {
          "internalType": "uint8",
          "name": "",
          "type": "uint8"
        }
      ],
      "payable": false,
      "stateMutability": "view",
      "type": "function"
    },
    {
      "constant": true,
      "inputs": [
        {
          "internalType": "address",
          "name": "account",
          "type": "address"
        }
      ],
      "name": "balanceOf",
      "outputs": [
        {
          "internalType": "uint256",
          "name": "",
          "type": "uint256"
        }
      ],
      "payable": false,
      "stateMutability": "view",
      "type": "function"
    },
    {
      "constant": true,
      "inputs": [],
      "name": "totalSupply",
      "outputs": [
        {
          "internalType": "uint256",
          "name": "",
          "type": "uint256"
        }
      ],
      "payable": false,
      "stateMutability": "view",
      "type": "function"
    },
    {
      "constant": true,
      "inputs": [
        {
          "internalType": "address",
          "name": "owner",
          "type": "address"
        },
        {
          "internalType": "address",
          "name": "spender",
          "type": "address"
        }
      ],
      "name": "allowance",
      "outputs": [
        {
          "internalType": "uint256",
          "name": "",
          "type": "uint256"
        }
      ],
      "payable": false,
      "stateMutability": "view",
      "type": "function"
    },
    {
      "constant": true,
      "inputs": [],
      "name": "dollar",
      "outputs": [
        {
          "internalType": "contract IDollar",
          "name": "",
          "type": "address"
        }
      ],
      "payable": false,
      "stateMutability": "view",
      "type": "function"
    },
    {
      "constant": true,
      "inputs": [],
      "name": "oracle",
      "outputs": [
        {
          "internalType": "contract IOracle",
          "name": "",
          "type": "address"
        }
      ],
      "payable": false,
      "stateMutability": "view",
      "type": "function"
    },
    {
      "constant": true,
      "inputs": [],
      "name": "pool",
      "outputs": [
        {
          "internalType": "address",
          "name": "",
          "type": "address"
        }
      ],
      "payable": false,
      "stateMutability": "view",
      "type": "function"
    },
    {
      "constant": true,
      "inputs": [],
      "name": "totalBonded",
      "outputs": [
        {
          "internalType": "uint256",
          "name": "",
          "type": "uint256"
        }
      ],
      "payable": false,
      "stateMutability": "view",
      "type": "function"
    },
    {
      "constant": true,
      "inputs": [],
      "name": "totalStaged",
      "outputs": [
        {
          "internalType": "uint256",
          "name": "",
          "type": "uint256"
        }
      ],
      "payable": false,
      "stateMutability": "view",
      "type": "function"
    },
    {
      "constant": true,
      "inputs": [],
      "name": "totalDebt",
      "outputs": [
        {
          "internalType": "uint256",
          "name": "",
          "type": "uint256"
        }
      ],
      "payable": false,
      "stateMutability": "view",
      "type": "function"
    },
    {
      "constant": true,
      "inputs": [],
      "name": "totalRedeemable",
      "outputs": [
        {
          "internalType": "uint256",
          "name": "",
          "type": "uint256"
        }
      ],
      "payable": false,
      "stateMutability": "view",
      "type": "function"
    },
    {
      "constant": true,
      "inputs": [],
      "name": "totalCoupons",
      "outputs": [
        {
          "internalType": "uint256",
          "name": "",
          "type": "uint256"
        }
      ],
      "payable": false,
      "stateMutability": "view",
      "type": "function"
    },
    {
      "constant": true,
      "inputs": [],
      "name": "totalNet",
      "outputs": [
        {
          "internalType": "uint256",
          "name": "",
          "type": "uint256"
        }
      ],
      "payable": false,
      "stateMutability": "view",
      "type": "function"
    },
    {
      "constant": true,
      "inputs": [
        {
          "internalType": "address",
          "name": "account",
          "type": "address"
        }
      ],
      "name": "balanceOfStaged",
      "outputs": [
        {
          "internalType": "uint256",
          "name": "",
          "type": "uint256"
        }
      ],
      "payable": false,
      "stateMutability": "view",
      "type": "function"
    },
    {
      "constant": true,
      "inputs": [
        {
          "internalType": "address",
          "name": "account",
          "type": "address"
        }
      ],
      "name": "balanceOfBonded",
      "outputs": [
        {
          "internalType": "uint256",
          "name": "",
          "type": "uint256"
        }
      ],
      "payable": false,
      "stateMutability": "view",
      "type": "function"
    },
    {
      "constant": true,
      "inputs": [
        {
          "internalType": "address",
          "name": "account",
          "type": "address"
        },
        {
          "internalType": "uint256",
          "name": "epoch",
          "type": "uint256"
        }
      ],
      "name": "balanceOfCoupons",
      "outputs": [
        {
          "internalType": "uint256",
          "name": "",
          "type": "uint256"
        }
      ],
      "payable": false,
      "stateMutability": "view",
      "type": "function"
    },
    {
      "constant": true,
      "inputs": [
        {
          "internalType": "address",
          "name": "account",
          "type": "address"
        }
      ],
      "name": "statusOf",
      "outputs": [
        {
          "internalType": "enum Account.Status",
          "name": "",
          "type": "uint8"
        }
      ],
      "payable": false,
      "stateMutability": "view",
      "type": "function"
    },
    {
      "constant": true,
      "inputs": [
        {
          "internalType": "address",
          "name": "owner",
          "type": "address"
        },
        {
          "internalType": "address",
          "name": "spender",
          "type": "address"
        }
      ],
      "name": "allowanceCoupons",
      "outputs": [
        {
          "internalType": "uint256",
          "name": "",
          "type": "uint256"
        }
      ],
      "payable": false,
      "stateMutability": "view",
      "type": "function"
    },
    {
      "constant": true,
      "inputs": [],
      "name": "epoch",
      "outputs": [
        {
          "internalType": "uint256",
          "name": "",
          "type": "uint256"
        }
      ],
      "payable": false,
      "stateMutability": "view",
      "type": "function"
    },
    {
      "constant": true,
      "inputs": [],
      "name": "epochTime",
      "outputs": [
        {
          "internalType": "uint256",
          "name": "",
          "type": "uint256"
        }
      ],
      "payable": false,
      "stateMutability": "view",
      "type": "function"
    },
    {
      "constant": true,
      "inputs": [
        {
          "internalType": "uint256",
          "name": "epoch",
          "type": "uint256"
        }
      ],
      "name": "outstandingCoupons",
      "outputs": [
        {
          "internalType": "uint256",
          "name": "",
          "type": "uint256"
        }
      ],
      "payable": false,
      "stateMutability": "view",
      "type": "function"
    },
    {
      "constant": true,
      "inputs": [
        {
          "internalType": "uint256",
          "name": "epoch",
          "type": "uint256"
        }
      ],
      "name": "couponsExpiration",
      "outputs": [
        {
          "internalType": "uint256",
          "name": "",
          "type": "uint256"
        }
      ],
      "payable": false,
      "stateMutability": "view",
      "type": "function"
    },
    {
      "constant": true,
      "inputs": [
        {
          "internalType": "uint256",
          "name": "epoch",
          "type": "uint256"
        }
      ],
      "name": "expiringCoupons",
      "outputs": [
        {
          "internalType": "uint256",
          "name": "",
          "type": "uint256"
        }
      ],
      "payable": false,
      "stateMutability": "view",
      "type": "function"
    },
    {
      "constant": true,
      "inputs": [
        {
          "internalType": "uint256",
          "name": "epoch",
          "type": "uint256"
        },
        {
          "internalType": "uint256",
          "name": "i",
          "type": "uint256"
        }
      ],
      "name": "expiringCouponsAtIndex",
      "outputs": [
        {
          "internalType": "uint256",
          "name": "",
          "type": "uint256"
        }
      ],
      "payable": false,
      "stateMutability": "view",
      "type": "function"
    },
    {
      "constant": true,
      "inputs": [
        {
          "internalType": "uint256",
          "name": "epoch",
          "type": "uint256"
        }
      ],
      "name": "totalBondedAt",
      "outputs": [
        {
          "internalType": "uint256",
          "name": "",
          "type": "uint256"
        }
      ],
      "payable": false,
      "stateMutability": "view",
      "type": "function"
    },
    {
      "constant": true,
      "inputs": [
        {
          "internalType": "uint256",
          "name": "epoch",
          "type": "uint256"
        }
      ],
      "name": "bootstrappingAt",
      "outputs": [
        {
          "internalType": "bool",
          "name": "",
          "type": "bool"
        }
      ],
      "payable": false,
      "stateMutability": "view",
      "type": "function"
    },
    {
      "constant": true,
      "inputs": [
        {
          "internalType": "address",
          "name": "account",
          "type": "address"
        },
        {
          "internalType": "address",
          "name": "candidate",
          "type": "address"
        }
      ],
      "name": "recordedVote",
      "outputs": [
        {
          "internalType": "enum Candidate.Vote",
          "name": "",
          "type": "uint8"
        }
      ],
      "payable": false,
      "stateMutability": "view",
      "type": "function"
    },
    {
      "constant": true,
      "inputs": [
        {
          "internalType": "address",
          "name": "candidate",
          "type": "address"
        }
      ],
      "name": "startFor",
      "outputs": [
        {
          "internalType": "uint256",
          "name": "",
          "type": "uint256"
        }
      ],
      "payable": false,
      "stateMutability": "view",
      "type": "function"
    },
    {
      "constant": true,
      "inputs": [
        {
          "internalType": "address",
          "name": "candidate",
          "type": "address"
        }
      ],
      "name": "periodFor",
      "outputs": [
        {
          "internalType": "uint256",
          "name": "",
          "type": "uint256"
        }
      ],
      "payable": false,
      "stateMutability": "view",
      "type": "function"
    },
    {
      "constant": true,
      "inputs": [
        {
          "internalType": "address",
          "name": "candidate",
          "type": "address"
        }
      ],
      "name": "approveFor",
      "outputs": [
        {
          "internalType": "uint256",
          "name": "",
          "type": "uint256"
        }
      ],
      "payable": false,
      "stateMutability": "view",
      "type": "function"
    },
    {
      "constant": true,
      "inputs": [
        {
          "internalType": "address",
          "name": "candidate",
          "type": "address"
        }
      ],
      "name": "rejectFor",
      "outputs": [
        {
          "internalType": "uint256",
          "name": "",
          "type": "uint256"
        }
      ],
      "payable": false,
      "stateMutability": "view",
      "type": "function"
    },
    {
      "constant": true,
      "inputs": [
        {
          "internalType": "address",
          "name": "candidate",
          "type": "address"
        }
      ],
      "name": "votesFor",
      "outputs": [
        {
          "internalType": "uint256",
          "name": "",
          "type": "uint256"
        }
      ],
      "payable": false,
      "stateMutability": "view",
      "type": "function"
    },
    {
      "constant": true,
      "inputs": [
        {
          "internalType": "address",
          "name": "candidate",
          "type": "address"
        }
      ],
      "name": "isNominated",
      "outputs": [
        {
          "internalType": "bool",
          "name": "",
          "type": "bool"
        }
      ],
      "payable": false,
      "stateMutability": "view",
      "type": "function"
    },
    {
      "constant": true,
      "inputs": [
        {
          "internalType": "address",
          "name": "candidate",
          "type": "address"
        }
      ],
      "name": "isInitialized",
      "outputs": [
        {
          "internalType": "bool",
          "name": "",
          "type": "bool"
        }
      ],
      "payable": false,
      "stateMutability": "view",
      "type": "function"
    },
    {
      "constant": true,
      "inputs": [],
      "name": "implementation",
      "outputs": [
        {
          "internalType": "address",
          "name": "impl",
          "type": "address"
        }
      ],
      "payable": false,
      "stateMutability": "view",
      "type": "function"
    }
  ],
  "bytecode": "0x608060405234801561001057600080fd5b50610e7f806100206000396000f3fe608060405234801561001057600080fd5b50600436106102275760003560e01c806375d5024b11610130578063a50cd8e7116100b8578063d60b347f1161007c578063d60b347f1461044b578063dd62ed3e1461045e578063f1b7cf4914610471578063fc7b9c1814610484578063ffbe3b731461048c57610227565b8063a50cd8e714610402578063a6c409f114610415578063bc7513e21461041d578063c9aff70c14610430578063cf0237791461044357610227565b8063900cf0cf116100ff578063900cf0cf146103c457806395d89b41146103cc57806397a5d5b5146103d45780639a649edc146103e75780639f6e1b26146103ef57610227565b806375d5024b146103835780637dc0d1d014610396578063825ad6071461039e57806386cf9f14146103b157610227565b80633fbba9a6116101b357806351adeb571161018257806351adeb571461032d5780635c60da1b14610342578063646680221461034a5780636a39e3281461035d57806370a082311461037057610227565b80633fbba9a6146102ea57806344d96e951461030a5780634c736099146103125780635053e4611461032557610227565b806318160ddd116101fa57806318160ddd146102925780631edbcf6c1461029a578063313ce567146102a2578063353a420c146102b75780633a3e6c81146102ca57610227565b806306fdde031461022c57806310e95b6c1461024a57806315e14bf61461026a57806316f0115b1461027d575b600080fd5b61023461049f565b6040516102419190610d39565b60405180910390f35b61025d610258366004610bb6565b6104d6565b6040516102419190610d6a565b61025d610278366004610b26565b6104ee565b61028561050c565b6040516102419190610d01565b61025d61051b565b61025d610521565b6102aa610527565b6040516102419190610d78565b61025d6102c5366004610b26565b61052c565b6102dd6102d8366004610b26565b61054a565b6040516102419190610d0f565b6102fd6102f8366004610b4c565b610567565b6040516102419190610d2b565b61025d61059b565b61025d610320366004610bf2565b6105a1565b61025d6105d1565b6103356105f4565b6040516102419190610d1d565b610285610603565b61025d610358366004610b26565b610628565b61025d61036b366004610bb6565b610646565b61025d61037e366004610b26565b61065b565b6102dd610391366004610bb6565b610679565b61033561068c565b61025d6103ac366004610b26565b61069b565b61025d6103bf366004610b26565b6106ee565b61025d610709565b61023461070f565b6102fd6103e2366004610b26565b61072d565b61025d61079a565b61025d6103fd366004610b4c565b6107a0565b61025d610410366004610b26565b6107cf565b61025d6107f2565b61025d61042b366004610b86565b610888565b61025d61043e366004610bb6565b6108cc565b61025d6108e1565b6102dd610459366004610b26565b6108e7565b61025d61046c366004610b4c565b610792565b61025d61047f366004610b26565b610908565b61025d610923565b61025d61049a366004610bb6565b610929565b60408051808201909152601d81527f5472756520536569676e696f7261676520446f6c6c6172205374616b65000000602082015290565b6000818152600d60205260409020600201545b919050565b6001600160a01b03166000908152600e602052604090206001015490565b600b546001600160a01b031690565b60035490565b60065490565b601290565b6001600160a01b03166000908152600e602052604090206003015490565b6001600160a01b03166000908152600e6020526040902054151590565b6001600160a01b038082166000908152600e60209081526040808320938616835260049093019052205460ff165b92915050565b60045490565b6000828152600d602052604081206003018054839081106105be57fe5b9060005260206000200154905092915050565b60006105db610ae4565b6105e361093b565b90506105ee8161096a565b91505090565b6009546001600160a01b031690565b7f360894a13ba1a3210667c828492db98dca3e2076cc3735a920a3ca505d382bbc5490565b6001600160a01b03166000908152600e602052604090206002015490565b6000908152600d602052604090206003015490565b6001600160a01b03166000908152600c602052604090206001015490565b600061068361098c565b90911115919050565b600a546001600160a01b031690565b6000806106a661051b565b9050806106b75760009150506104e9565b6106e7816106db6106c78661065b565b6106cf61059b565b9063ffffffff61099116565b9063ffffffff6109d416565b9392505050565b6001600160a01b03166000908152600c602052604090205490565b60025490565b6040805180820190915260048152635453445360e01b602082015290565b6000610737610709565b6001600160a01b0383166000908152600c60205260409020600501541115610761575060026104e9565b6001600160a01b0382166000908152600c6020526040902060040154610785610709565b1015610792576001610595565b600092915050565b60085490565b6001600160a01b039182166000908152600c602090815260408083209390941682526003909201909152205490565b60006105956107dd8361052c565b6107e684610628565b9063ffffffff610a1616565b60006108836107ff610923565b6108076105f4565b6001600160a01b03166318160ddd6040518163ffffffff1660e01b815260040160206040518083038186803b15801561083f57600080fd5b505afa158015610853573d6000803e3d6000fd5b505050506040513d601f19601f820116820180604052506108779190810190610bd4565b9063ffffffff610a3b16565b905090565b6000610893826108cc565b61089f57506000610595565b506001600160a01b03919091166000908152600c6020908152604080832093835260029093019052205490565b6000908152600d602052604090206001015490565b60055490565b6001600160a01b03166000908152600e602052604090206005015460ff1690565b6001600160a01b03166000908152600e602052604090205490565b60075490565b6000908152600d602052604090205490565b610943610ae4565b604051806060016040528060008152602001635fee9e408152602001610e10815250905090565b600061059582600001516107e684604001516106db8660200151610877610a7d565b60f090565b6000826109a057506000610595565b828202828482816109ad57fe5b04146106e75760405162461bcd60e51b81526004016109cb90610d5a565b60405180910390fd5b60006106e783836040518060400160405280601a81526020017f536166654d6174683a206469766973696f6e206279207a65726f000000000000815250610a81565b6000828201838110156106e75760405162461bcd60e51b81526004016109cb90610d4a565b60006106e783836040518060400160405280601e81526020017f536166654d6174683a207375627472616374696f6e206f766572666c6f770000815250610ab8565b4290565b60008183610aa25760405162461bcd60e51b81526004016109cb9190610d39565b506000838581610aae57fe5b0495945050505050565b60008184841115610adc5760405162461bcd60e51b81526004016109cb9190610d39565b505050900390565b60405180606001604052806000815260200160008152602001600081525090565b803561059581610e1f565b803561059581610e33565b805161059581610e33565b600060208284031215610b3857600080fd5b6000610b448484610b05565b949350505050565b60008060408385031215610b5f57600080fd5b6000610b6b8585610b05565b9250506020610b7c85828601610b05565b9150509250929050565b60008060408385031215610b9957600080fd5b6000610ba58585610b05565b9250506020610b7c85828601610b10565b600060208284031215610bc857600080fd5b6000610b448484610b10565b600060208284031215610be657600080fd5b6000610b448484610b1b565b60008060408385031215610c0557600080fd5b6000610ba58585610b10565b610c1a81610d93565b82525050565b610c1a81610d9e565b610c1a81610dc2565b610c1a81610dcd565b6000610c4682610d86565b610c508185610d8a565b9350610c60818560208601610dd8565b610c6981610e08565b9093019392505050565b6000610c80601b83610d8a565b7f536166654d6174683a206164646974696f6e206f766572666c6f770000000000815260200192915050565b6000610cb9602183610d8a565b7f536166654d6174683a206d756c7469706c69636174696f6e206f766572666c6f8152607760f81b602082015260400192915050565b610c1a81610db9565b610c1a81610dbc565b602081016105958284610c11565b602081016105958284610c20565b602081016105958284610c29565b602081016105958284610c32565b602080825281016106e78184610c3b565b6020808252810161059581610c73565b6020808252810161059581610cac565b602081016105958284610cef565b602081016105958284610cf8565b5190565b90815260200190565b600061059582610dad565b151590565b806104e981610e12565b6001600160a01b031690565b90565b60ff1690565b600061059582610d93565b600061059582610da3565b60005b83811015610df3578181015183820152602001610ddb565b83811115610e02576000848401525b50505050565b601f01601f191690565b60038110610e1c57fe5b50565b610e2881610d93565b8114610e1c57600080fd5b610e2881610db956fea365627a7a723158203f8e93f862fb36c98068d722b024f5bc5b5828b2685dba8e71310fc2afe55cfa6c6578706572696d656e74616cf564736f6c63430005110040",
  "source": "/*\n    Copyright 2020 True Seigniorage Dollar Devs, based on the works of the Empty Set Squad and Dynamic Dollar Devs\n\n    Licensed under the Apache License, Version 2.0 (the \"License\");\n    you may not use this file except in compliance with the License.\n    You may obtain a copy of the License at\n\n    http://www.apache.org/licenses/LICENSE-2.0\n\n    Unless required by applicable law or agreed to in writing, software\n    distributed under the License is distributed on an \"AS IS\" BASIS,\n    WITHOUT WARRANTIES OR CONDITIONS OF ANY KIND, either express or implied.\n    See the License for the specific language governing permissions and\n    limitations under the License.\n*/\n\npragma solidity ^0.5.17;\npragma experimental ABIEncoderV2;\n\nimport \"@openzeppelin/contracts/math/SafeMath.sol\";\nimport \"./State.sol\";\nimport \"../Constants.sol\";\n\ncontract Getters is State {\n    using SafeMath for uint256;\n    using Decimal for Decimal.D256;\n\n    bytes32 private constant IMPLEMENTATION_SLOT = 0x360894a13ba1a3210667c828492db98dca3e2076cc3735a920a3ca505d382bbc;\n\n    /**\n     * ERC20 Interface\n     */\n\n    function name() public view returns (string memory) {\n        return \"True Seigniorage Dollar Stake\";\n    }\n\n    function symbol() public view returns (string memory) {\n        return \"TSDS\";\n    }\n\n    function decimals() public view returns (uint8) {\n        return 18;\n    }\n\n    function balanceOf(address account) public view returns (uint256) {\n        return _state.accounts[account].balance;\n    }\n\n    function totalSupply() public view returns (uint256) {\n        return _state.balance.supply;\n    }\n\n    function allowance(address owner, address spender) external view returns (uint256) {\n        return 0;\n    }\n\n    /**\n     * Global\n     */\n\n    function dollar() public view returns (IDollar) {\n        return _state.provider.dollar;\n    }\n\n    function oracle() public view returns (IOracle) {\n        return _state.provider.oracle;\n    }\n\n    function pool() public view returns (address) {\n        return _state.provider.pool;\n    }\n\n    function totalBonded() public view returns (uint256) {\n        return _state.balance.bonded;\n    }\n\n    function totalStaged() public view returns (uint256) {\n        return _state.balance.staged;\n    }\n\n    function totalDebt() public view returns (uint256) {\n        return _state.balance.debt;\n    }\n\n    function totalRedeemable() public view returns (uint256) {\n        return _state.balance.redeemable;\n    }\n\n    function totalCoupons() public view returns (uint256) {\n        return _state.balance.coupons;\n    }\n\n    function totalNet() public view returns (uint256) {\n        return dollar().totalSupply().sub(totalDebt());\n    }\n\n    /**\n     * Account\n     */\n\n    function balanceOfStaged(address account) public view returns (uint256) {\n        return _state.accounts[account].staged;\n    }\n\n    function balanceOfBonded(address account) public view returns (uint256) {\n        uint256 totalSupply = totalSupply();\n        if (totalSupply == 0) {\n            return 0;\n        }\n        return totalBonded().mul(balanceOf(account)).div(totalSupply);\n    }\n\n    function balanceOfCoupons(address account, uint256 epoch) public view returns (uint256) {\n        if (outstandingCoupons(epoch) == 0) {\n            return 0;\n        }\n        return _state.accounts[account].coupons[epoch];\n    }\n\n    function statusOf(address account) public view returns (Account.Status) {\n        if (_state.accounts[account].lockedUntil > epoch()) {\n            return Account.Status.Locked;\n        }\n\n        return epoch() >= _state.accounts[account].fluidUntil ? Account.Status.Frozen : Account.Status.Fluid;\n    }\n\n    function allowanceCoupons(address owner, address spender) public view returns (uint256) {\n        return _state.accounts[owner].couponAllowances[spender];\n    }\n\n    /**\n     * Epoch\n     */\n\n    function epoch() public view returns (uint256) {\n        return _state.epoch.current;\n    }\n\n    function epochTime() public view returns (uint256) {\n        Constants.EpochStrategy memory current = Constants.getEpochStrategy();\n\n        return epochTimeWithStrategy(current);\n    }\n\n    function epochTimeWithStrategy(Constants.EpochStrategy memory strategy) private view returns (uint256) {\n        return blockTimestamp()\n            .sub(strategy.start)\n            .div(strategy.period)\n            .add(strategy.offset);\n    }\n\n    // Overridable for testing\n    function blockTimestamp() internal view returns (uint256) {\n        return block.timestamp;\n    }\n\n    function outstandingCoupons(uint256 epoch) public view returns (uint256) {\n        return _state.epochs[epoch].coupons.outstanding;\n    }\n\n    function couponsExpiration(uint256 epoch) public view returns (uint256) {\n        return _state.epochs[epoch].coupons.expiration;\n    }\n\n    function expiringCoupons(uint256 epoch) public view returns (uint256) {\n        return _state.epochs[epoch].coupons.expiring.length;\n    }\n\n    function expiringCouponsAtIndex(uint256 epoch, uint256 i) public view returns (uint256) {\n        return _state.epochs[epoch].coupons.expiring[i];\n    }\n\n    function totalBondedAt(uint256 epoch) public view returns (uint256) {\n        return _state.epochs[epoch].bonded;\n    }\n\n    function bootstrappingAt(uint256 epoch) public view returns (bool) {\n        return epoch <= Constants.getBootstrappingPeriod();\n    }\n\n    /**\n     * Governance\n     */\n\n    function recordedVote(address account, address candidate) public view returns (Candidate.Vote) {\n        return _state.candidates[candidate].votes[account];\n    }\n\n    function startFor(address candidate) public view returns (uint256) {\n        return _state.candidates[candidate].start;\n    }\n\n    function periodFor(address candidate) public view returns (uint256) {\n        return _state.candidates[candidate].period;\n    }\n\n    function approveFor(address candidate) public view returns (uint256) {\n        return _state.candidates[candidate].approve;\n    }\n\n    function rejectFor(address candidate) public view returns (uint256) {\n        return _state.candidates[candidate].reject;\n    }\n\n    function votesFor(address candidate) public view returns (uint256) {\n        return approveFor(candidate).add(rejectFor(candidate));\n    }\n\n    function isNominated(address candidate) public view returns (bool) {\n        return _state.candidates[candidate].start > 0;\n    }\n\n    function isInitialized(address candidate) public view returns (bool) {\n        return _state.candidates[candidate].initialized;\n    }\n\n    function implementation() public view returns (address impl) {\n        bytes32 slot = IMPLEMENTATION_SLOT;\n        assembly {\n            impl := sload(slot)\n        }\n    }\n}\n",
  "sourcePath": "/Volumes/Data/Code/planb/true-seigniorage-dollar/protocol/contracts/dao/Getters.sol",
  "compiler": {
    "name": "solc",
    "version": "0.5.17+commit.d19bba13.Emscripten.clang"
  },
  "schemaVersion": "3.3.3",
  "updatedAt": "2020-12-31T12:42:20.732Z",
  "devdoc": {
    "methods": {}
  },
  "userdoc": {
    "methods": {
      "balanceOfStaged(address)": {
        "notice": "Account"
      },
      "dollar()": {
        "notice": "Global"
      },
      "epoch()": {
        "notice": "Epoch"
      },
      "name()": {
        "notice": "ERC20 Interface"
      },
      "recordedVote(address,address)": {
        "notice": "Governance"
      }
    }
  }
}