{
  "contractName": "Implementation",
  "abi": [
    {
      "anonymous": false,
      "inputs": [
        {
          "indexed": true,
          "internalType": "uint256",
          "name": "epoch",
          "type": "uint256"
        },
        {
          "indexed": false,
          "internalType": "uint256",
          "name": "block",
          "type": "uint256"
        },
        {
          "indexed": false,
          "internalType": "uint256",
          "name": "timestamp",
          "type": "uint256"
        }
      ],
      "name": "Advance",
      "type": "event"
    },
    {
      "anonymous": false,
      "inputs": [
        {
          "indexed": true,
          "internalType": "address",
          "name": "account",
          "type": "address"
        },
        {
          "indexed": false,
          "internalType": "uint256",
          "name": "start",
          "type": "uint256"
        },
        {
          "indexed": false,
          "internalType": "uint256",
          "name": "value",
          "type": "uint256"
        },
        {
          "indexed": false,
          "internalType": "uint256",
          "name": "valueUnderlying",
          "type": "uint256"
        }
      ],
      "name": "Bond",
      "type": "event"
    },
    {
      "anonymous": false,
      "inputs": [
        {
          "indexed": true,
          "internalType": "address",
          "name": "account",
          "type": "address"
        },
        {
          "indexed": true,
          "internalType": "address",
          "name": "candidate",
          "type": "address"
        }
      ],
      "name": "Commit",
      "type": "event"
    },
    {
      "anonymous": false,
      "inputs": [
        {
          "indexed": true,
          "internalType": "address",
          "name": "owner",
          "type": "address"
        },
        {
          "indexed": true,
          "internalType": "address",
          "name": "spender",
          "type": "address"
        },
        {
          "indexed": false,
          "internalType": "uint256",
          "name": "value",
          "type": "uint256"
        }
      ],
      "name": "CouponApproval",
      "type": "event"
    },
    {
      "anonymous": false,
      "inputs": [
        {
          "indexed": true,
          "internalType": "address",
          "name": "account",
          "type": "address"
        },
        {
          "indexed": true,
          "internalType": "uint256",
          "name": "epoch",
          "type": "uint256"
        },
        {
          "indexed": false,
          "internalType": "uint256",
          "name": "couponAmount",
          "type": "uint256"
        }
      ],
      "name": "CouponBurn",
      "type": "event"
    },
    {
      "anonymous": false,
      "inputs": [
        {
          "indexed": true,
          "internalType": "uint256",
          "name": "epoch",
          "type": "uint256"
        },
        {
          "indexed": false,
          "internalType": "uint256",
          "name": "couponsExpired",
          "type": "uint256"
        },
        {
          "indexed": false,
          "internalType": "uint256",
          "name": "lessRedeemable",
          "type": "uint256"
        },
        {
          "indexed": false,
          "internalType": "uint256",
          "name": "lessDebt",
          "type": "uint256"
        },
        {
          "indexed": false,
          "internalType": "uint256",
          "name": "newBonded",
          "type": "uint256"
        }
      ],
      "name": "CouponExpiration",
      "type": "event"
    },
    {
      "anonymous": false,
      "inputs": [
        {
          "indexed": true,
          "internalType": "address",
          "name": "account",
          "type": "address"
        },
        {
          "indexed": true,
          "internalType": "uint256",
          "name": "epoch",
          "type": "uint256"
        },
        {
          "indexed": false,
          "internalType": "uint256",
          "name": "dollarAmount",
          "type": "uint256"
        },
        {
          "indexed": false,
          "internalType": "uint256",
          "name": "couponAmount",
          "type": "uint256"
        }
      ],
      "name": "CouponPurchase",
      "type": "event"
    },
    {
      "anonymous": false,
      "inputs": [
        {
          "indexed": true,
          "internalType": "address",
          "name": "account",
          "type": "address"
        },
        {
          "indexed": true,
          "internalType": "uint256",
          "name": "epoch",
          "type": "uint256"
        },
        {
          "indexed": false,
          "internalType": "uint256",
          "name": "couponAmount",
          "type": "uint256"
        }
      ],
      "name": "CouponRedemption",
      "type": "event"
    },
    {
      "anonymous": false,
      "inputs": [
        {
          "indexed": true,
          "internalType": "address",
          "name": "from",
          "type": "address"
        },
        {
          "indexed": true,
          "internalType": "address",
          "name": "to",
          "type": "address"
        },
        {
          "indexed": true,
          "internalType": "uint256",
          "name": "epoch",
          "type": "uint256"
        },
        {
          "indexed": false,
          "internalType": "uint256",
          "name": "value",
          "type": "uint256"
        }
      ],
      "name": "CouponTransfer",
      "type": "event"
    },
    {
      "anonymous": false,
      "inputs": [
        {
          "indexed": true,
          "internalType": "address",
          "name": "account",
          "type": "address"
        },
        {
          "indexed": false,
          "internalType": "uint256",
          "name": "value",
          "type": "uint256"
        }
      ],
      "name": "Deposit",
      "type": "event"
    },
    {
      "anonymous": false,
      "inputs": [
        {
          "indexed": true,
          "internalType": "address",
          "name": "account",
          "type": "address"
        },
        {
          "indexed": false,
          "internalType": "uint256",
          "name": "amount",
          "type": "uint256"
        }
      ],
      "name": "Incentivization",
      "type": "event"
    },
    {
      "anonymous": false,
      "inputs": [
        {
          "indexed": true,
          "internalType": "address",
          "name": "candidate",
          "type": "address"
        },
        {
          "indexed": true,
          "internalType": "address",
          "name": "account",
          "type": "address"
        },
        {
          "indexed": true,
          "internalType": "uint256",
          "name": "start",
          "type": "uint256"
        },
        {
          "indexed": false,
          "internalType": "uint256",
          "name": "period",
          "type": "uint256"
        }
      ],
      "name": "Proposal",
      "type": "event"
    },
    {
      "anonymous": false,
      "inputs": [
        {
          "indexed": true,
          "internalType": "uint256",
          "name": "epoch",
          "type": "uint256"
        },
        {
          "indexed": false,
          "internalType": "uint256",
          "name": "price",
          "type": "uint256"
        },
        {
          "indexed": false,
          "internalType": "uint256",
          "name": "newDebt",
          "type": "uint256"
        }
      ],
      "name": "SupplyDecrease",
      "type": "event"
    },
    {
      "anonymous": false,
      "inputs": [
        {
          "indexed": true,
          "internalType": "uint256",
          "name": "epoch",
          "type": "uint256"
        },
        {
          "indexed": false,
          "internalType": "uint256",
          "name": "price",
          "type": "uint256"
        },
        {
          "indexed": false,
          "internalType": "uint256",
          "name": "newRedeemable",
          "type": "uint256"
        },
        {
          "indexed": false,
          "internalType": "uint256",
          "name": "lessDebt",
          "type": "uint256"
        },
        {
          "indexed": false,
          "internalType": "uint256",
          "name": "newBonded",
          "type": "uint256"
        }
      ],
      "name": "SupplyIncrease",
      "type": "event"
    },
    {
      "anonymous": false,
      "inputs": [
        {
          "indexed": true,
          "internalType": "uint256",
          "name": "epoch",
          "type": "uint256"
        }
      ],
      "name": "SupplyNeutral",
      "type": "event"
    },
    {
      "anonymous": false,
      "inputs": [
        {
          "indexed": true,
          "internalType": "address",
          "name": "from",
          "type": "address"
        },
        {
          "indexed": true,
          "internalType": "address",
          "name": "to",
          "type": "address"
        },
        {
          "indexed": false,
          "internalType": "uint256",
          "name": "value",
          "type": "uint256"
        }
      ],
      "name": "Transfer",
      "type": "event"
    },
    {
      "anonymous": false,
      "inputs": [
        {
          "indexed": true,
          "internalType": "address",
          "name": "account",
          "type": "address"
        },
        {
          "indexed": false,
          "internalType": "uint256",
          "name": "start",
          "type": "uint256"
        },
        {
          "indexed": false,
          "internalType": "uint256",
          "name": "value",
          "type": "uint256"
        },
        {
          "indexed": false,
          "internalType": "uint256",
          "name": "valueUnderlying",
          "type": "uint256"
        }
      ],
      "name": "Unbond",
      "type": "event"
    },
    {
      "anonymous": false,
      "inputs": [
        {
          "indexed": true,
          "internalType": "address",
          "name": "implementation",
          "type": "address"
        }
      ],
      "name": "Upgraded",
      "type": "event"
    },
    {
      "anonymous": false,
      "inputs": [
        {
          "indexed": true,
          "internalType": "address",
          "name": "account",
          "type": "address"
        },
        {
          "indexed": true,
          "internalType": "address",
          "name": "candidate",
          "type": "address"
        },
        {
          "indexed": false,
          "internalType": "enum Candidate.Vote",
          "name": "vote",
          "type": "uint8"
        },
        {
          "indexed": false,
          "internalType": "uint256",
          "name": "bonded",
          "type": "uint256"
        }
      ],
      "name": "Vote",
      "type": "event"
    },
    {
      "anonymous": false,
      "inputs": [
        {
          "indexed": true,
          "internalType": "address",
          "name": "account",
          "type": "address"
        },
        {
          "indexed": false,
          "internalType": "uint256",
          "name": "value",
          "type": "uint256"
        }
      ],
      "name": "Withdraw",
      "type": "event"
    },
    {
      "constant": true,
      "inputs": [
        {
          "internalType": "address",
          "name": "owner",
          "type": "address"
        },
        {
          "internalType": "address",
          "name": "spender",
          "type": "address"
        }
      ],
      "name": "allowance",
      "outputs": [
        {
          "internalType": "uint256",
          "name": "",
          "type": "uint256"
        }
      ],
      "payable": false,
      "stateMutability": "view",
      "type": "function"
    },
    {
      "constant": true,
      "inputs": [
        {
          "internalType": "address",
          "name": "owner",
          "type": "address"
        },
        {
          "internalType": "address",
          "name": "spender",
          "type": "address"
        }
      ],
      "name": "allowanceCoupons",
      "outputs": [
        {
          "internalType": "uint256",
          "name": "",
          "type": "uint256"
        }
      ],
      "payable": false,
      "stateMutability": "view",
      "type": "function"
    },
    {
      "constant": false,
      "inputs": [
        {
          "internalType": "address",
          "name": "spender",
          "type": "address"
        },
        {
          "internalType": "uint256",
          "name": "amount",
          "type": "uint256"
        }
      ],
      "name": "approve",
      "outputs": [
        {
          "internalType": "bool",
          "name": "",
          "type": "bool"
        }
      ],
      "payable": false,
      "stateMutability": "nonpayable",
      "type": "function"
    },
    {
      "constant": false,
      "inputs": [
        {
          "internalType": "address",
          "name": "spender",
          "type": "address"
        },
        {
          "internalType": "uint256",
          "name": "amount",
          "type": "uint256"
        }
      ],
      "name": "approveCoupons",
      "outputs": [],
      "payable": false,
      "stateMutability": "nonpayable",
      "type": "function"
    },
    {
      "constant": true,
      "inputs": [
        {
          "internalType": "address",
          "name": "candidate",
          "type": "address"
        }
      ],
      "name": "approveFor",
      "outputs": [
        {
          "internalType": "uint256",
          "name": "",
          "type": "uint256"
        }
      ],
      "payable": false,
      "stateMutability": "view",
      "type": "function"
    },
    {
      "constant": true,
      "inputs": [
        {
          "internalType": "address",
          "name": "account",
          "type": "address"
        }
      ],
      "name": "balanceOf",
      "outputs": [
        {
          "internalType": "uint256",
          "name": "",
          "type": "uint256"
        }
      ],
      "payable": false,
      "stateMutability": "view",
      "type": "function"
    },
    {
      "constant": true,
      "inputs": [
        {
          "internalType": "address",
          "name": "account",
          "type": "address"
        }
      ],
      "name": "balanceOfBonded",
      "outputs": [
        {
          "internalType": "uint256",
          "name": "",
          "type": "uint256"
        }
      ],
      "payable": false,
      "stateMutability": "view",
      "type": "function"
    },
    {
      "constant": true,
      "inputs": [
        {
          "internalType": "address",
          "name": "account",
          "type": "address"
        },
        {
          "internalType": "uint256",
          "name": "epoch",
          "type": "uint256"
        }
      ],
      "name": "balanceOfCoupons",
      "outputs": [
        {
          "internalType": "uint256",
          "name": "",
          "type": "uint256"
        }
      ],
      "payable": false,
      "stateMutability": "view",
      "type": "function"
    },
    {
      "constant": true,
      "inputs": [
        {
          "internalType": "address",
          "name": "account",
          "type": "address"
        }
      ],
      "name": "balanceOfStaged",
      "outputs": [
        {
          "internalType": "uint256",
          "name": "",
          "type": "uint256"
        }
      ],
      "payable": false,
      "stateMutability": "view",
      "type": "function"
    },
    {
      "constant": false,
      "inputs": [
        {
          "internalType": "uint256",
          "name": "value",
          "type": "uint256"
        }
      ],
      "name": "bond",
      "outputs": [],
      "payable": false,
      "stateMutability": "nonpayable",
      "type": "function"
    },
    {
      "constant": true,
      "inputs": [
        {
          "internalType": "uint256",
          "name": "epoch",
          "type": "uint256"
        }
      ],
      "name": "bootstrappingAt",
      "outputs": [
        {
          "internalType": "bool",
          "name": "",
          "type": "bool"
        }
      ],
      "payable": false,
      "stateMutability": "view",
      "type": "function"
    },
    {
      "constant": false,
      "inputs": [
        {
          "internalType": "address",
          "name": "candidate",
          "type": "address"
        }
      ],
      "name": "commit",
      "outputs": [],
      "payable": false,
      "stateMutability": "nonpayable",
      "type": "function"
    },
    {
      "constant": true,
      "inputs": [
        {
          "internalType": "uint256",
          "name": "amount",
          "type": "uint256"
        }
      ],
      "name": "couponPremium",
      "outputs": [
        {
          "internalType": "uint256",
          "name": "",
          "type": "uint256"
        }
      ],
      "payable": false,
      "stateMutability": "view",
      "type": "function"
    },
    {
      "constant": true,
      "inputs": [
        {
          "internalType": "uint256",
          "name": "couponEpoch",
          "type": "uint256"
        },
        {
          "internalType": "uint256",
          "name": "couponAmount",
          "type": "uint256"
        }
      ],
      "name": "couponRedemptionPenalty",
      "outputs": [
        {
          "internalType": "uint256",
          "name": "",
          "type": "uint256"
        }
      ],
      "payable": false,
      "stateMutability": "view",
      "type": "function"
    },
    {
      "constant": true,
      "inputs": [
        {
          "internalType": "uint256",
          "name": "epoch",
          "type": "uint256"
        }
      ],
      "name": "couponsExpiration",
      "outputs": [
        {
          "internalType": "uint256",
          "name": "",
          "type": "uint256"
        }
      ],
      "payable": false,
      "stateMutability": "view",
      "type": "function"
    },
    {
      "constant": true,
      "inputs": [],
      "name": "decimals",
      "outputs": [
        {
          "internalType": "uint8",
          "name": "",
          "type": "uint8"
        }
      ],
      "payable": false,
      "stateMutability": "view",
      "type": "function"
    },
    {
      "constant": false,
      "inputs": [
        {
          "internalType": "uint256",
          "name": "value",
          "type": "uint256"
        }
      ],
      "name": "deposit",
      "outputs": [],
      "payable": false,
      "stateMutability": "nonpayable",
      "type": "function"
    },
    {
      "constant": true,
      "inputs": [],
      "name": "dollar",
      "outputs": [
        {
          "internalType": "contract IDollar",
          "name": "",
          "type": "address"
        }
      ],
      "payable": false,
      "stateMutability": "view",
      "type": "function"
    },
    {
      "constant": false,
      "inputs": [
        {
          "internalType": "address",
          "name": "candidate",
          "type": "address"
        }
      ],
      "name": "emergencyCommit",
      "outputs": [],
      "payable": false,
      "stateMutability": "nonpayable",
      "type": "function"
    },
    {
      "constant": true,
      "inputs": [],
      "name": "epoch",
      "outputs": [
        {
          "internalType": "uint256",
          "name": "",
          "type": "uint256"
        }
      ],
      "payable": false,
      "stateMutability": "view",
      "type": "function"
    },
    {
      "constant": true,
      "inputs": [],
      "name": "epochTime",
      "outputs": [
        {
          "internalType": "uint256",
          "name": "",
          "type": "uint256"
        }
      ],
      "payable": false,
      "stateMutability": "view",
      "type": "function"
    },
    {
      "constant": true,
      "inputs": [
        {
          "internalType": "uint256",
          "name": "epoch",
          "type": "uint256"
        }
      ],
      "name": "expiringCoupons",
      "outputs": [
        {
          "internalType": "uint256",
          "name": "",
          "type": "uint256"
        }
      ],
      "payable": false,
      "stateMutability": "view",
      "type": "function"
    },
    {
      "constant": true,
      "inputs": [
        {
          "internalType": "uint256",
          "name": "epoch",
          "type": "uint256"
        },
        {
          "internalType": "uint256",
          "name": "i",
          "type": "uint256"
        }
      ],
      "name": "expiringCouponsAtIndex",
      "outputs": [
        {
          "internalType": "uint256",
          "name": "",
          "type": "uint256"
        }
      ],
      "payable": false,
      "stateMutability": "view",
      "type": "function"
    },
    {
      "constant": true,
      "inputs": [],
      "name": "implementation",
      "outputs": [
        {
          "internalType": "address",
          "name": "impl",
          "type": "address"
        }
      ],
      "payable": false,
      "stateMutability": "view",
      "type": "function"
    },
    {
      "constant": true,
      "inputs": [
        {
          "internalType": "address",
          "name": "candidate",
          "type": "address"
        }
      ],
      "name": "isInitialized",
      "outputs": [
        {
          "internalType": "bool",
          "name": "",
          "type": "bool"
        }
      ],
      "payable": false,
      "stateMutability": "view",
      "type": "function"
    },
    {
      "constant": true,
      "inputs": [
        {
          "internalType": "address",
          "name": "candidate",
          "type": "address"
        }
      ],
      "name": "isNominated",
      "outputs": [
        {
          "internalType": "bool",
          "name": "",
          "type": "bool"
        }
      ],
      "payable": false,
      "stateMutability": "view",
      "type": "function"
    },
    {
      "constant": true,
      "inputs": [],
      "name": "name",
      "outputs": [
        {
          "internalType": "string",
          "name": "",
          "type": "string"
        }
      ],
      "payable": false,
      "stateMutability": "view",
      "type": "function"
    },
    {
      "constant": true,
      "inputs": [],
      "name": "oracle",
      "outputs": [
        {
          "internalType": "contract IOracle",
          "name": "",
          "type": "address"
        }
      ],
      "payable": false,
      "stateMutability": "view",
      "type": "function"
    },
    {
      "constant": true,
      "inputs": [
        {
          "internalType": "uint256",
          "name": "epoch",
          "type": "uint256"
        }
      ],
      "name": "outstandingCoupons",
      "outputs": [
        {
          "internalType": "uint256",
          "name": "",
          "type": "uint256"
        }
      ],
      "payable": false,
      "stateMutability": "view",
      "type": "function"
    },
    {
      "constant": true,
      "inputs": [
        {
          "internalType": "address",
          "name": "candidate",
          "type": "address"
        }
      ],
      "name": "periodFor",
      "outputs": [
        {
          "internalType": "uint256",
          "name": "",
          "type": "uint256"
        }
      ],
      "payable": false,
      "stateMutability": "view",
      "type": "function"
    },
    {
      "constant": true,
      "inputs": [],
      "name": "pool",
      "outputs": [
        {
          "internalType": "address",
          "name": "",
          "type": "address"
        }
      ],
      "payable": false,
      "stateMutability": "view",
      "type": "function"
    },
    {
      "constant": false,
      "inputs": [
        {
          "internalType": "uint256",
          "name": "dollarAmount",
          "type": "uint256"
        }
      ],
      "name": "purchaseCoupons",
      "outputs": [
        {
          "internalType": "uint256",
          "name": "",
          "type": "uint256"
        }
      ],
      "payable": false,
      "stateMutability": "nonpayable",
      "type": "function"
    },
    {
      "constant": true,
      "inputs": [
        {
          "internalType": "address",
          "name": "account",
          "type": "address"
        },
        {
          "internalType": "address",
          "name": "candidate",
          "type": "address"
        }
      ],
      "name": "recordedVote",
      "outputs": [
        {
          "internalType": "enum Candidate.Vote",
          "name": "",
          "type": "uint8"
        }
      ],
      "payable": false,
      "stateMutability": "view",
      "type": "function"
    },
    {
      "constant": false,
      "inputs": [
        {
          "internalType": "uint256",
          "name": "couponEpoch",
          "type": "uint256"
        },
        {
          "internalType": "uint256",
          "name": "couponAmount",
          "type": "uint256"
        },
        {
          "internalType": "uint256",
          "name": "minOutput",
          "type": "uint256"
        }
      ],
      "name": "redeemCoupons",
      "outputs": [],
      "payable": false,
      "stateMutability": "nonpayable",
      "type": "function"
    },
    {
      "constant": false,
      "inputs": [
        {
          "internalType": "uint256",
          "name": "couponEpoch",
          "type": "uint256"
        },
        {
          "internalType": "uint256",
          "name": "couponAmount",
          "type": "uint256"
        }
      ],
      "name": "redeemCoupons",
      "outputs": [],
      "payable": false,
      "stateMutability": "nonpayable",
      "type": "function"
    },
    {
      "constant": true,
      "inputs": [
        {
          "internalType": "address",
          "name": "candidate",
          "type": "address"
        }
      ],
      "name": "rejectFor",
      "outputs": [
        {
          "internalType": "uint256",
          "name": "",
          "type": "uint256"
        }
      ],
      "payable": false,
      "stateMutability": "view",
      "type": "function"
    },
    {
      "constant": true,
      "inputs": [
        {
          "internalType": "address",
          "name": "candidate",
          "type": "address"
        }
      ],
      "name": "startFor",
      "outputs": [
        {
          "internalType": "uint256",
          "name": "",
          "type": "uint256"
        }
      ],
      "payable": false,
      "stateMutability": "view",
      "type": "function"
    },
    {
      "constant": true,
      "inputs": [
        {
          "internalType": "address",
          "name": "account",
          "type": "address"
        }
      ],
      "name": "statusOf",
      "outputs": [
        {
          "internalType": "enum Account.Status",
          "name": "",
          "type": "uint8"
        }
      ],
      "payable": false,
      "stateMutability": "view",
      "type": "function"
    },
    {
      "constant": true,
      "inputs": [],
      "name": "symbol",
      "outputs": [
        {
          "internalType": "string",
          "name": "",
          "type": "string"
        }
      ],
      "payable": false,
      "stateMutability": "view",
      "type": "function"
    },
    {
      "constant": true,
      "inputs": [],
      "name": "totalBonded",
      "outputs": [
        {
          "internalType": "uint256",
          "name": "",
          "type": "uint256"
        }
      ],
      "payable": false,
      "stateMutability": "view",
      "type": "function"
    },
    {
      "constant": true,
      "inputs": [
        {
          "internalType": "uint256",
          "name": "epoch",
          "type": "uint256"
        }
      ],
      "name": "totalBondedAt",
      "outputs": [
        {
          "internalType": "uint256",
          "name": "",
          "type": "uint256"
        }
      ],
      "payable": false,
      "stateMutability": "view",
      "type": "function"
    },
    {
      "constant": true,
      "inputs": [],
      "name": "totalCoupons",
      "outputs": [
        {
          "internalType": "uint256",
          "name": "",
          "type": "uint256"
        }
      ],
      "payable": false,
      "stateMutability": "view",
      "type": "function"
    },
    {
      "constant": true,
      "inputs": [],
      "name": "totalDebt",
      "outputs": [
        {
          "internalType": "uint256",
          "name": "",
          "type": "uint256"
        }
      ],
      "payable": false,
      "stateMutability": "view",
      "type": "function"
    },
    {
      "constant": true,
      "inputs": [],
      "name": "totalNet",
      "outputs": [
        {
          "internalType": "uint256",
          "name": "",
          "type": "uint256"
        }
      ],
      "payable": false,
      "stateMutability": "view",
      "type": "function"
    },
    {
      "constant": true,
      "inputs": [],
      "name": "totalRedeemable",
      "outputs": [
        {
          "internalType": "uint256",
          "name": "",
          "type": "uint256"
        }
      ],
      "payable": false,
      "stateMutability": "view",
      "type": "function"
    },
    {
      "constant": true,
      "inputs": [],
      "name": "totalStaged",
      "outputs": [
        {
          "internalType": "uint256",
          "name": "",
          "type": "uint256"
        }
      ],
      "payable": false,
      "stateMutability": "view",
      "type": "function"
    },
    {
      "constant": true,
      "inputs": [],
      "name": "totalSupply",
      "outputs": [
        {
          "internalType": "uint256",
          "name": "",
          "type": "uint256"
        }
      ],
      "payable": false,
      "stateMutability": "view",
      "type": "function"
    },
    {
      "constant": false,
      "inputs": [
        {
          "internalType": "address",
          "name": "recipient",
          "type": "address"
        },
        {
          "internalType": "uint256",
          "name": "amount",
          "type": "uint256"
        }
      ],
      "name": "transfer",
      "outputs": [
        {
          "internalType": "bool",
          "name": "",
          "type": "bool"
        }
      ],
      "payable": false,
      "stateMutability": "nonpayable",
      "type": "function"
    },
    {
      "constant": false,
      "inputs": [
        {
          "internalType": "address",
          "name": "sender",
          "type": "address"
        },
        {
          "internalType": "address",
          "name": "recipient",
          "type": "address"
        },
        {
          "internalType": "uint256",
          "name": "epoch",
          "type": "uint256"
        },
        {
          "internalType": "uint256",
          "name": "amount",
          "type": "uint256"
        }
      ],
      "name": "transferCoupons",
      "outputs": [],
      "payable": false,
      "stateMutability": "nonpayable",
      "type": "function"
    },
    {
      "constant": false,
      "inputs": [
        {
          "internalType": "address",
          "name": "sender",
          "type": "address"
        },
        {
          "internalType": "address",
          "name": "recipient",
          "type": "address"
        },
        {
          "internalType": "uint256",
          "name": "amount",
          "type": "uint256"
        }
      ],
      "name": "transferFrom",
      "outputs": [
        {
          "internalType": "bool",
          "name": "",
          "type": "bool"
        }
      ],
      "payable": false,
      "stateMutability": "nonpayable",
      "type": "function"
    },
    {
      "constant": false,
      "inputs": [
        {
          "internalType": "uint256",
          "name": "value",
          "type": "uint256"
        }
      ],
      "name": "unbond",
      "outputs": [],
      "payable": false,
      "stateMutability": "nonpayable",
      "type": "function"
    },
    {
      "constant": false,
      "inputs": [
        {
          "internalType": "uint256",
          "name": "value",
          "type": "uint256"
        }
      ],
      "name": "unbondUnderlying",
      "outputs": [],
      "payable": false,
      "stateMutability": "nonpayable",
      "type": "function"
    },
    {
      "constant": false,
      "inputs": [
        {
          "internalType": "address",
          "name": "candidate",
          "type": "address"
        },
        {
          "internalType": "enum Candidate.Vote",
          "name": "vote",
          "type": "uint8"
        }
      ],
      "name": "vote",
      "outputs": [],
      "payable": false,
      "stateMutability": "nonpayable",
      "type": "function"
    },
    {
      "constant": true,
      "inputs": [
        {
          "internalType": "address",
          "name": "candidate",
          "type": "address"
        }
      ],
      "name": "votesFor",
      "outputs": [
        {
          "internalType": "uint256",
          "name": "",
          "type": "uint256"
        }
      ],
      "payable": false,
      "stateMutability": "view",
      "type": "function"
    },
    {
      "constant": false,
      "inputs": [
        {
          "internalType": "uint256",
          "name": "value",
          "type": "uint256"
        }
      ],
      "name": "withdraw",
      "outputs": [],
      "payable": false,
      "stateMutability": "nonpayable",
      "type": "function"
    },
    {
      "constant": false,
      "inputs": [],
      "name": "initialize",
      "outputs": [],
      "payable": false,
      "stateMutability": "nonpayable",
      "type": "function"
    },
    {
      "constant": false,
      "inputs": [],
      "name": "advance",
      "outputs": [],
      "payable": false,
      "stateMutability": "nonpayable",
      "type": "function"
    }
  ],
  "bytecode": "0x608060405234801561001057600080fd5b50614538806100206000396000f3fe608060405234801561001057600080fd5b50600436106103825760003560e01c80638129fc1c116101de578063bc0b1df61161010f578063d8f54138116100ad578063ea105ac71161007c578063ea105ac714610714578063f1b7cf491461071c578063fc7b9c181461072f578063ffbe3b731461073757610382565b8063d8f54138146106cd578063dd62ed3e146106e0578063df9a2b1c146106ee578063e5f55c7e1461070157610382565b8063c9aff70c116100e9578063c9aff70c1461068c578063cf0237791461069f578063d60b347f146106a7578063d6a9cf08146106ba57610382565b8063bc0b1df614610653578063bc7513e214610666578063bceb514d1461067957610382565b80639a649edc1161017c578063a50cd8e711610156578063a50cd8e714610625578063a6c409f114610638578063a9059cbb146103ba578063b6b55f251461064057610382565b80639a649edc146105f75780639f6e1b26146105ff578063a1eb31e81461061257610382565b8063900cf0cf116101b8578063900cf0cf146105c157806395d89b41146105c957806397a5d5b5146105d15780639940686e146105e457610382565b80638129fc1c14610593578063825ad6071461059b57806386cf9f14146105ae57610382565b8063369e8c1d116102b857806351adeb57116102565780636a39e328116102305780636a39e3281461055257806370a082311461056557806375d5024b146105785780637dc0d1d01461058b57610382565b806351adeb57146105225780635c60da1b14610537578063646680221461053f57610382565b806344d96e951161029257806344d96e95146104ec57806347c05069146104f45780634c736099146105075780635053e4611461051a57610382565b8063369e8c1d146104a65780633a3e6c81146104b95780633fbba9a6146104cc57610382565b80631edbcf6c116103255780632e1a7d4d116102ff5780632e1a7d4d146104585780632f7f889e1461046b578063313ce5671461047e578063353a420c1461049357610382565b80631edbcf6c1461042a57806323b872dd1461043257806327de9e321461044557610382565b806310e95b6c1161036157806310e95b6c146103da57806315e14bf6146103fa57806316f0115b1461040d57806318160ddd1461042257610382565b80625edd371461038757806306fdde031461039c578063095ea7b3146103ba575b600080fd5b61039a610395366004613cc6565b61074a565b005b6103a461086d565b6040516103b1919061421e565b60405180910390f35b6103cd6103c8366004613d57565b6108a5565b6040516103b191906141e6565b6103ed6103e8366004613dd5565b6108ae565b6040516103b1919061429f565b6103ed610408366004613c21565b6108c6565b6104156108e4565b6040516103b19190614179565b6103ed6108f3565b6103ed6108f9565b6103cd610440366004613c79565b6108ff565b61039a610453366004613dd5565b610909565b61039a610466366004613dd5565b610a53565b61039a610479366004613d57565b610b8b565b610486610c0b565b6040516103b1919061430b565b6103ed6104a1366004613c21565b610c10565b61039a6104b4366004613c21565b610c2e565b6103cd6104c7366004613c21565b610d7c565b6104df6104da366004613c3f565b610d99565b6040516103b19190614202565b6103ed610dcc565b61039a610502366004613c21565b610dd2565b6103ed610515366004613e11565b610ec5565b6103ed610ef5565b61052a610f18565b6040516103b191906141f4565b610415610f27565b6103ed61054d366004613c21565b610f4c565b6103ed610560366004613dd5565b610f6a565b6103ed610573366004613c21565b610f7f565b6103cd610586366004613dd5565b610f9d565b61052a610fb0565b61039a610fbf565b6103ed6105a9366004613c21565b611092565b6103ed6105bc366004613c21565b6110d2565b6103ed6110ed565b6103a46110f3565b6104df6105df366004613c21565b611111565b61039a6105f2366004613dd5565b611176565b6103ed611244565b6103ed61060d366004613c3f565b61124a565b6103ed610620366004613e11565b611279565b6103ed610633366004613c21565b61139f565b6103ed6113b6565b61039a61064e366004613dd5565b611440565b61039a610661366004613e30565b611518565b6103ed610674366004613d57565b61164c565b61039a610687366004613d27565b611690565b6103ed61069a366004613dd5565b61192b565b6103ed611940565b6103cd6106b5366004613c21565b611946565b61039a6106c8366004613e11565b611967565b6103ed6106db366004613dd5565b611a63565b6103ed6103c8366004613c3f565b61039a6106fc366004613dd5565b611aee565b6103ed61070f366004613dd5565b611bac565b61039a611c9e565b6103ed61072a366004613c21565b611d51565b6103ed611d6c565b6103ed610745366004613dd5565b611d72565b6001600160a01b0384166107795760405162461bcd60e51b81526004016107709061427f565b60405180910390fd5b6001600160a01b03831661079f5760405162461bcd60e51b81526004016107709061423f565b6107c384838360405180606001604052806023815260200161441760239139611d84565b6107ce838383611e2f565b336001600160a01b038516148015906107f257506000196107ef853361124a565b14155b1561081b5761081b84338360405180606001604052806024815260200161445e60249139611ed6565b81836001600160a01b0316856001600160a01b03167f0f1dbb1ccbe57a1590c7baad7b01d581b730c9ebc535dcde4345e6db424063d88460405161085f919061429f565b60405180910390a450505050565b60408051808201909152601d81527f5472756520536569676e696f7261676520446f6c6c6172205374616b6500000060208201525b90565b60005b92915050565b6000818152600d60205260409020600201545b919050565b6001600160a01b03166000908152600e602052604090206001015490565b600b546001600160a01b031690565b60035490565b60065490565b60005b9392505050565b3361095060025b61091983611111565b600281111561092457fe5b1415692832b936b4b9b9b4b7b760b11b72139bdd08199c9bde995b881bdc88199b1d5a59606a1b611f47565b61095933611f9c565b600061098c61096733610f7f565b61098061097333611092565b869063ffffffff611fc616565b9063ffffffff61200016565b90506109983382612042565b6109ba816040518060600160405280602281526020016144826022913961209e565b6109fa33846040518060400160405280601d81526020017f426f6e64696e673a20696e73756666696369656e742062616c616e63650000008152506120b9565b337f93530ac0ee8c50e696e13c5ac62355d0c0ba4bd943620d5bda1eb08b64ae7512610a356001610a296110ed565b9063ffffffff61216416565b8584604051610a46939291906142bb565b60405180910390a2505050565b33610a9b60015b610a6383611111565b6002811115610a6e57fe5b1415692832b936b4b9b9b4b7b760b11b73139bdd08199c9bde995b881bdc881b1bd8dad95960621b611f47565b610aa3610f18565b6001600160a01b031663a9059cbb33846040518363ffffffff1660e01b8152600401610ad09291906141af565b602060405180830381600087803b158015610aea57600080fd5b505af1158015610afe573d6000803e3d6000fd5b505050506040513d601f19601f82011682018060405250610b229190810190613d87565b50610b46338360405180606001604052806024815260200161443a60249139612189565b336001600160a01b03167f884edad9ce6fa2440d8a54cc123490eb96d2768479d49ff9c7366125a942436483604051610b7f919061429f565b60405180910390a25050565b6001600160a01b038216610bb15760405162461bcd60e51b81526004016107709061426f565b610bbc3383836121e8565b816001600160a01b0316336001600160a01b03167f8ff27e6b95060c1ca851e7c2c28af8b413eb1a8bcb637b0290da9543a709cce383604051610bff919061429f565b60405180910390a35050565b601290565b6001600160a01b03166000908152600e602052604090206003015490565b610c5a610c3a82610d7c565b6523b7bb32b93760d11b6c139bdd081b9bdb5a5b985d1959609a1b611f47565b6000610c826001610c76610c6d856108c6565b610a2986611d51565b9063ffffffff61221816565b9050610cad81610c906110ed565b116523b7bb32b93760d11b68139bdd08195b99195960ba1b611f47565b610d04610ce1610cbb61225a565b610cd5610cc78661139f565b610cd086611d72565b61227c565b9063ffffffff6122ab16565b6523b7bb32b93760d11b6f4d75737420686176652071756f726f6d60801b611f47565b610d39610d1083610c10565b610d1984610f4c565b116523b7bb32b93760d11b6b139bdd08185c1c1c9bdd995960a21b611f47565b610d42826122c1565b6040516001600160a01b0383169033907f815ca4497ab9fc80c76f210e6e842a5e198e195aa136034557eee144f790e7bb90600090a35050565b6001600160a01b03166000908152600e6020526040902054151590565b6001600160a01b038082166000908152600e60209081526040808320938616835260049093019052205460ff1692915050565b60045490565b610dde610c3a82610d7c565b610e1c610df4610dec6123ad565b610a296110ed565b610dfc610ef5565b116523b7bb32b93760d11b6b115c1bd8da081cde5b98d95960a21b611f47565b610e6e610e3e610e2a6123b2565b610cd5610e3685610f4c565b610cd06108f3565b6523b7bb32b93760d11b7f4d7573742068617665207375706572206d616a6f726974790000000000000000611f47565b610e83610e7a82610c10565b610d1983610f4c565b610e8c816122c1565b6040516001600160a01b0382169033907f815ca4497ab9fc80c76f210e6e842a5e198e195aa136034557eee144f790e7bb90600090a350565b6000828152600d60205260408120600301805483908110610ee257fe5b9060005260206000200154905092915050565b6000610eff613b83565b610f076123d4565b9050610f1281612403565b91505090565b6009546001600160a01b031690565b7f360894a13ba1a3210667c828492db98dca3e2076cc3735a920a3ca505d382bbc5490565b6001600160a01b03166000908152600e602052604090206002015490565b6000908152600d602052604090206003015490565b6001600160a01b03166000908152600c602052604090206001015490565b6000610fa7612425565b90911115919050565b600a546001600160a01b031690565b610ff8610fcd6106b5610f27565b15692832b936b4b9b9b4b7b760b11b72105b1c9958591e481a5b9a5d1a585b1a5e9959606a1b611f47565b611008611003610f27565b61242a565b61101b3368056bc75e2d63100000612451565b61104273f240cdbae37660ba61ca65b887b8d8091d677b31681b1ae4d6e2ef500000612451565b611069735d5d6b228d8a2adf2067c8a6b78960ff522224b96815af1d78b58c400000612451565b61109073e95bb97850092203b6a5bc6d057288ab085465b36815af1d78b58c400000612451565b565b60008061109d6108f3565b9050806110ae5760009150506108c1565b610902816109806110be86610f7f565b6110c6610dcc565b9063ffffffff611fc616565b6001600160a01b03166000908152600c602052604090205490565b60025490565b6040805180820190915260048152635453445360e01b602082015290565b600061111b6110ed565b6001600160a01b0383166000908152600c60205260409020600501541115611145575060026108c1565b6001600160a01b0382166000908152600c60205260409020600401546111696110ed565b10156108a55760016108a8565b336111816002610910565b61118a33611f9c565b6000611194610dcc565b156111b4576111af6111a4610dcc565b6109806109736108f3565b6111cc565b6111cc6111bf6124fd565b849063ffffffff611fc616565b90506111d83382612504565b6111e1836125a0565b611204338460405180606001604052806024815260200161443a60249139612189565b337f44002fdef5a0c2d2e4e05572e9780b95aef97e0e93ffd7cc076b09fa78ff2b466112336001610a296110ed565b8386604051610a46939291906142bb565b60085490565b6001600160a01b039182166000908152600c602090815260408083209390941682526003909201909152205490565b6000806112846123d4565b60400151428161129057fe5b06905060008461129e6110ed565b03905060006112ab6125b9565b826112b46125b9565b036112bd6125bf565b02816112c557fe5b049050808311156112dc57600093505050506108a8565b6112e4613ba4565b6113376040518060200160405280856112fb6125b9565b0381525061132b60405180602001604052806113156125b9565b905261131f6125c5565b9063ffffffff6125e716565b9063ffffffff61261516565b9050611341613ba4565b6040805160208082018352878603825282519081019092528482526113719161132b90859063ffffffff6125e716565b6040805160208101909152888152909150611392908263ffffffff61261516565b5198975050505050505050565b60006108a86113ad83610c10565b610a2984610f4c565b600061143b6113c3611d6c565b6113cb610f18565b6001600160a01b03166318160ddd6040518163ffffffff1660e01b815260040160206040518083038186803b15801561140357600080fd5b505afa158015611417573d6000803e3d6000fd5b505050506040513d601f19601f82011682018060405250610c769190810190613df3565b905090565b3361144b6001610a5a565b611453610f18565b6001600160a01b03166323b872dd3330856040518463ffffffff1660e01b815260040161148293929190614187565b602060405180830381600087803b15801561149c57600080fd5b505af11580156114b0573d6000803e3d6000fd5b505050506040513d601f19601f820116820180604052506114d49190810190613d87565b506114df3383612042565b336001600160a01b03167fe1fffcc4923d04b559f4d29a8bfc6cda04eb5b0d3c460751c2402c5c5cc9109c83604051610b7f919061429f565b600261152684610c766110ed565b10156115445760405162461bcd60e51b81526004016107709061428f565b61156833848460405180606001604052806023815260200161441760239139611d84565b60006115748484611279565b90508083036115b0838210156513585c9ad95d60d21b7f496e73756666696369656e74206f757470757420616d6f756e74000000000000611f47565b6115ba3382612643565b81156116035784336001600160a01b03167f1cd1213d4276c260e84170b4a39025dc8398fbf744edee0709261769b456b94b846040516115fa919061429f565b60405180910390a35b84336001600160a01b03167f46e9903ae8ac9e9f0c9bc321b05965c1c036e7d4783758703f5cdfc4133c51b68360405161163d919061429f565b60405180910390a35050505050565b60006116578261192b565b611663575060006108a8565b506001600160a01b03919091166000908152600c6020908152604080832093835260029093019052205490565b3361169b6001610a5a565b6116cc60006116a933610f7f565b116523b7bb32b93760d11b6e4d7573742068617665207374616b6560881b611f47565b6116d583610d7c565b611778576117156116e5336126ed565b6523b7bb32b93760d11b7f4e6f7420656e6f756768207374616b6520746f2070726f706f73650000000000611f47565b61172683611721612735565b61273a565b61172e6110ed565b336001600160a01b0385167fd15e38a680a427478883cd2d32eb664cb6bb2090b0126a23ebaf3e3784b8c56b611762612735565b60405161176f919061429f565b60405180910390a45b6117a8611787610c6d856108c6565b61178f6110ed565b106523b7bb32b93760d11b64115b99195960da1b611f47565b60006117b333610f7f565b905060006117c13386610d99565b90508060028111156117cf57fe5b8460028111156117db57fe5b14156117e8575050611926565b60028160028111156117f657fe5b141561183c5761183c85836040518060400160405280601b81526020017f476f7665726e3a20496e73756666696369656e742072656a6563740000000000815250612766565b600181600281111561184a57fe5b14156118905761189085836040518060400160405280601c81526020017f476f7665726e3a20496e73756666696369656e7420617070726f7665000000008152506127b7565b600284600281111561189e57fe5b14156118ae576118ae8583612808565b60018460028111156118bc57fe5b14156118cc576118cc8583612857565b6118d73386866128a6565b6118e133866128f0565b846001600160a01b0316336001600160a01b03167fbe50c78cbc15b0864819aadea36c6499da421b33c38e2ef19bebda583c708c78868560405161163d929190614210565b505050565b6000908152600d602052604090206001015490565b60055490565b6001600160a01b03166000908152600e602052604090206005015460ff1690565b600261197583610c766110ed565b10156119935760405162461bcd60e51b81526004016107709061428f565b6119b733838360405180606001604052806023815260200161441760239139611d84565b60006119c38383611279565b90508082036119d23382612643565b8115611a1b5783336001600160a01b03167f1cd1213d4276c260e84170b4a39025dc8398fbf744edee0709261769b456b94b84604051611a12919061429f565b60405180910390a35b83336001600160a01b03167f46e9903ae8ac9e9f0c9bc321b05965c1c036e7d4783758703f5cdfc4133c51b683604051611a55919061429f565b60405180910390a350505050565b60006108a8611a70610f18565b6001600160a01b03166318160ddd6040518163ffffffff1660e01b815260040160206040518083038186803b158015611aa857600080fd5b505afa158015611abc573d6000803e3d6000fd5b505050506040513d601f19601f82011682018060405250611ae09190810190613df3565b611ae8611d6c565b84612951565b33611af96002610910565b611b0233611f9c565b6000611b0f6111a4610dcc565b9050611b1b3384612042565b611b3d836040518060600160405280602281526020016144826022913961209e565b611b7d33826040518060400160405280601d81526020017f426f6e64696e673a20696e73756666696369656e742062616c616e63650000008152506120b9565b337f93530ac0ee8c50e696e13c5ac62355d0c0ba4bd943620d5bda1eb08b64ae75126112336001610a296110ed565b6000611be5600083116513585c9ad95d60d21b7f4d757374207075726368617365206e6f6e2d7a65726f20616d6f756e74000000611f47565b611c1582611bf1611d6c565b10156513585c9ad95d60d21b6e139bdd08195b9bdd59da081919589d608a1b611f47565b6000611c1f6110ed565b90506000611c3c611c2f85611a63565b859063ffffffff61216416565b9050611c48338561297e565b611c53338383611e2f565b81336001600160a01b03167fbce252db29f761f815dc2e9ea60005af065efba6eb619d2a0b2a113fdeb614148684604051611c8f9291906142ad565b60405180910390a39392505050565b6000611ca8612a8f565b9050611cb43382612451565b336001600160a01b03167fbb4f656853bc420ad6e4321622c07eefb4ed40e3f91b35553ce14a6dff4c098182604051611ced919061429f565b60405180910390a2611cfd612a9c565b611d05612ae7565b611d0d612b7a565b611d156110ed565b7fc30b728d1c19e5db3678b8ea9e9a063a5655071e1a325c2f7fdbca48baa906004342604051611d469291906142ad565b60405180910390a250565b6001600160a01b03166000908152600e602052604090205490565b60075490565b6000908152600d602052604090205490565b6001600160a01b0384166000908152600c60209081526040808320868452600201909152902054611dbc90838363ffffffff612bd416565b6001600160a01b0385166000908152600c60209081526040808320878452600201825280832093909355600d90522060010154611e0090838363ffffffff612bd416565b6000848152600d6020526040902060010155600854611e2690838363ffffffff612bd416565b60085550505050565b6001600160a01b0383166000908152600c60209081526040808320858452600201909152902054611e66908263ffffffff61216416565b6001600160a01b0384166000908152600c60209081526040808320868452600201825280832093909355600d90522060010154611ea9908263ffffffff61216416565b6000838152600d6020526040902060010155600854611ece908263ffffffff61216416565b600855505050565b6001600160a01b038085166000908152600c602090815260408083209387168352600390930190522054611f1190838363ffffffff612bd416565b6001600160a01b039485166000908152600c60209081526040808320969097168252600390950190945293909220929092555050565b8261192657611f5582612c00565b6101d160f51b611f6483612c00565b604051602001611f7693929190614148565b60408051601f198184030181529082905262461bcd60e51b82526107709160040161421e565b611fa7610dec612c80565b6001600160a01b039091166000908152600c6020526040902060040155565b600082611fd5575060006108a8565b82820282848281611fe257fe5b04146109025760405162461bcd60e51b81526004016107709061424f565b600061090283836040518060400160405280601a81526020017f536166654d6174683a206469766973696f6e206279207a65726f000000000000815250612c85565b6001600160a01b0382166000908152600c602052604090205461206b908263ffffffff61216416565b6001600160a01b0383166000908152600c6020526040902055600554612097908263ffffffff61216416565b6005555050565b6004546120b290838363ffffffff612bd416565b6004555050565b6001600160a01b0383166000908152600c60205260409020600101546120e690838363ffffffff612bd416565b6001600160a01b0384166000908152600c602052604090206001015560035461211690838363ffffffff612bd416565b6003556040516000906001600160a01b038516907fddf252ad1be2c89b69c2b068fc378daa952ba7f163c4a11628f55a4df523b3ef9061215790869061429f565b60405180910390a3505050565b6000828201838110156109025760405162461bcd60e51b81526004016107709061422f565b6001600160a01b0383166000908152600c60205260409020546121b390838363ffffffff612bd416565b6001600160a01b0384166000908152600c60205260409020556005546121e090838363ffffffff612bd416565b600555505050565b6001600160a01b039283166000908152600c60209081526040808320949095168252600390930190925291902055565b600061090283836040518060400160405280601e81526020017f536166654d6174683a207375627472616374696f6e206f766572666c6f770000815250612bd4565b612262613ba4565b506040805160208101909152670494654067e10000815290565b612284613ba4565b60405180602001604052806122a285670de0b6b3a764000086612cbc565b90529392505050565b60006122b78383612cd2565b6002149392505050565b6122ca81612d04565b60408051600481526024810182526020810180516001600160e01b031663204a7f0760e21b17905290516000916060916001600160a01b0385169161230e9161413c565b600060405180830381855af49150503d8060008114612349576040519150601f19603f3d011682016040523d82523d6000602084013e61234e565b606091505b50915091508181906123735760405162461bcd60e51b8152600401610770919061421e565b506040516001600160a01b038416907fbc7cd75a20ee27fd9adebab32041f755214dbc6bffa90cc0225b39da2e5c2d3b90600090a2505050565b600690565b6123ba613ba4565b506040805160208101909152670928ca80cfc20000815290565b6123dc613b83565b604051806060016040528060008152602001635fee9e408152602001610e10815250905090565b60006108a88260000151610a2984604001516109808660200151610c76612d4d565b60f090565b6001600160a01b03166000908152600e60205260409020600501805460ff19166001179055565b612459610f18565b6001600160a01b03166340c10f1983836040518363ffffffff1660e01b81526004016124869291906141d8565b602060405180830381600087803b1580156124a057600080fd5b505af11580156124b4573d6000803e3d6000fd5b505050506040513d601f19601f820116820180604052506124d89190810190613d87565b506124e46105866110ed565b6124f1576124f181612d51565b6124f9612d6e565b5050565b620f424090565b6001600160a01b0382166000908152600c6020526040902060010154612530908263ffffffff61216416565b6001600160a01b0383166000908152600c602052604090206001015560035461255f908263ffffffff61216416565b6003556040516001600160a01b038316906000907fddf252ad1be2c89b69c2b068fc378daa952ba7f163c4a11628f55a4df523b3ef90610bff90859061429f565b6004546125b3908263ffffffff61216416565b60045550565b6102d090565b610e1090565b6125cd613ba4565b5060408051602081019091526706f05b59d3b20000815290565b6125ef613ba4565b60405180602001604052806122a28560000151670de0b6b3a76400008660000151612cbc565b61261d613ba4565b60405180602001604052806122a285600001518560000151670de0b6b3a7640000612cbc565b61264b610f18565b6001600160a01b031663a9059cbb83836040518363ffffffff1660e01b81526004016126789291906141d8565b602060405180830381600087803b15801561269257600080fd5b505af11580156126a6573d6000803e3d6000fd5b505050506040513d601f19601f820116820180604052506126ca9190810190613d87565b506124f1816040518060600160405280602a81526020016144cc602a9139612e41565b60006126f7610dcc565b612703575060006108c1565b61270b613ba4565b612717610e3684610f7f565b90506109026127286001606461227c565b829063ffffffff6122ab16565b602490565b6127426110ed565b6001600160a01b039092166000908152600e60205260409020918255600190910155565b6001600160a01b0383166000908152600e602052604090206003015461279390838363ffffffff612bd416565b6001600160a01b039093166000908152600e60205260409020600301929092555050565b6001600160a01b0383166000908152600e60205260409020600201546127e490838363ffffffff612bd416565b6001600160a01b039093166000908152600e60205260409020600201929092555050565b6001600160a01b0382166000908152600e6020526040902060030154612834908263ffffffff61216416565b6001600160a01b039092166000908152600e602052604090206003019190915550565b6001600160a01b0382166000908152600e6020526040902060020154612883908263ffffffff61216416565b6001600160a01b039092166000908152600e602052604090206002019190915550565b6001600160a01b038083166000908152600e6020908152604080832093871683526004909301905220805482919060ff191660018360028111156128e657fe5b0217905550505050565b6001600160a01b0382166000908152600c602052604081206005015490612922612919846108c6565b610a2985611d51565b90508181111561294b576001600160a01b0384166000908152600c602052604090206005018190555b50505050565b600061297661297183612965878787612e5c565b9063ffffffff612fc916565b612ff0565b949350505050565b612986610f18565b6001600160a01b03166323b872dd8330846040518463ffffffff1660e01b81526004016129b5939291906141ca565b602060405180830381600087803b1580156129cf57600080fd5b505af11580156129e3573d6000803e3d6000fd5b505050506040513d601f19601f82011682018060405250612a079190810190613d87565b50612a10610f18565b6001600160a01b03166342966c68826040518263ffffffff1660e01b8152600401612a3b919061429f565b600060405180830381600087803b158015612a5557600080fd5b505af1158015612a69573d6000803e3d6000fd5b505050506124f1816040518060600160405280602881526020016144a46028913961300d565b68015af1d78b58c4000090565b612ad7612aa76110ed565b612aaf610ef5565b1166426f6e64696e6760c81b720a6e8d2d8d840c6eae4e4cadce840cae0dec6d606b1b611f47565b612adf613028565b61109061304f565b612aef613ba4565b612af7613068565b9050612b04612728613130565b15612b2057612b11613152565b612b1a81613159565b50611090565b612b38612b2b613130565b829063ffffffff61320f16565b15612b4657612b1a81613223565b612b4e6110ed565b6040517fff7db5a0dc69b02c191ba632db46961b7d0daa1bd30709ddba9b80ad0a15d2c090600090a250565b60005b612b886105606110ed565b811015612bb057612ba8612ba3612b9d6110ed565b83610ec5565b61329d565b600101612b7d565b506000612bbe610dec6125b9565b9050612bd1612bcb6110ed565b82613349565b50565b60008184841115612bf85760405162461bcd60e51b8152600401610770919061421e565b505050900390565b60608082604051602001612c149190614127565b60408051601f19818403018152919052905060205b8015612c6957815160001990910190829082908110612c4457fe5b01602001516001600160f81b03191615612c6457600101815290506108c1565b612c29565b505060408051600081526020810190915292915050565b604890565b60008183612ca65760405162461bcd60e51b8152600401610770919061421e565b506000838581612cb257fe5b0495945050505050565b600061297682610980868663ffffffff611fc616565b805182516000911415612ce7575060016108a8565b8151835111612cf7576000612cfa565b60025b60ff169392505050565b612d0d8161337b565b612d295760405162461bcd60e51b81526004016107709061425f565b7f360894a13ba1a3210667c828492db98dca3e2076cc3735a920a3ca505d382bbc55565b4290565b612d5a81613381565b612d6a612d6561339a565b6133bc565b612bd15b611090612d8f612d7c6108f9565b610a29612d87611940565b610a29610dcc565b612d97610f18565b6001600160a01b03166370a08231306040518263ffffffff1660e01b8152600401612dc29190614179565b60206040518083038186803b158015612dda57600080fd5b505afa158015612dee573d6000803e3d6000fd5b505050506040513d601f19601f82011682018060405250612e129190810190613df3565b10156a21b7b6b83a3937b63632b960a91b74496e636f6e73697374656e742062616c616e63657360581b611f47565b600654612e5590838363ffffffff612bd416565b6006555050565b612e64613ba4565b612e6c613ba4565b612e76848661227c565b9050612e80613ba4565b612e8861339a565b90506000612e9c878663ffffffff61221816565b90506000612eb0878763ffffffff61221816565b9050612eba613ba4565b612ec4828461227c565b9050612ed6858563ffffffff6122ab16565b15612fb257612eeb818563ffffffff6122ab16565b15612f0557612ef98461346f565b95505050505050610902565b612f0d613ba4565b612f1782866134bb565b9050612f21613ba4565b612f31868463ffffffff61351816565b9050612f3b613ba4565b612f448761346f565b9050612f4e613ba4565b612f5e898963ffffffff61351816565b9050612fa2612f73848363ffffffff61354116565b61131f612f86858563ffffffff61261516565b612f96888863ffffffff61261516565b9063ffffffff61354116565b9950505050505050505050610902565b612fbc81866134bb565b9998505050505050505050565b612fd1613ba4565b6040805160208101909152835181906122a2908563ffffffff611fc616565b80516000906108a890670de0b6b3a764000063ffffffff61200016565b60075461302190838363ffffffff612bd416565b6007555050565b6130306108f3565b600d600061303c6110ed565b8152602081019190915260400160002055565b60025461306390600163ffffffff61216416565b600255565b613070613ba4565b613078613ba4565b6000613082610fb0565b6001600160a01b031663d4a3e9d76040518163ffffffff1660e01b81526004016040805180830381600087803b1580156130bb57600080fd5b505af11580156130cf573d6000803e3d6000fd5b505050506040513d601f19601f820116820180604052506130f39190810190613da5565b915091506131076105866001610c766110ed565b1561311d5761311461356a565b925050506108a2565b8061312a57613114613130565b50905090565b613138613ba4565b506040805160208101909152670de0b6b3a7640000815290565b6000600755565b613161613ba4565b61318c61318761316f61358c565b61131f61317a613130565b869063ffffffff61351816565b6135ae565b905060006131ab61297161319e6113b6565b849063ffffffff612fc916565b905060008060006131bb846135e2565b9250925092506131c96110ed565b86516040517f32fcaa1e76ed9517f4749d8ec9a77dd5e7329456d740b9bf9665d900eef5e283916131ff918790879087906142d6565b60405180910390a2505050505050565b600061321b8383612cd2565b159392505050565b61322b613ba4565b6132466131878361323a613130565b9063ffffffff61351816565b9050600061325861297161319e6113b6565b905061326381612d51565b61326b6110ed565b83516040517f5e139d4b8080a4a00dcc151e8217694aeebae893936326aa22096924a990667791610a469185906142ad565b60006132a88261192b565b9050600080806132b78561374e565b60006132c16108f9565b905060006132cd611244565b905080821115613302576132e7828263ffffffff61221816565b94506132f285613791565b6132fb856135e2565b9095509350505b867f753df65b37159bf237ae1fca97ba1bd57cf83bc9498f271a514a4d7bafe87bda8787878760405161333894939291906142d6565b60405180910390a250505050505050565b6000828152600d6020908152604080832060020184905592825291812060030180546001810182559082529190200155565b3b151590565b600754613394908263ffffffff61216416565b60075550565b6133a2613ba4565b5060408051602081019091526704db732547630000815290565b600061343c6129716133cc610f18565b6001600160a01b03166318160ddd6040518163ffffffff1660e01b815260040160206040518083038186803b15801561340457600080fd5b505afa158015613418573d6000803e3d6000fd5b505050506040513d601f19601f8201168201806040525061319e9190810190613df3565b90506000613448611d6c565b905081811115611926576000613464828463ffffffff61221816565b905061294b81613818565b613477613ba4565b6108a86134866001600361227c565b61323a6134b36134a9600261349d8861323a613130565b9063ffffffff61385716565b61132b60036138ad565b61131f613130565b6134c3613ba4565b6134d3838363ffffffff6138e116565b156134e8576134e18361346f565b90506108a8565b6109026134f76001600361227c565b61323a6134b36135098761323a613130565b61132b6134a98861323a613130565b613520613ba4565b60408051602081019091528251845182916122a2919063ffffffff61221816565b613549613ba4565b60408051602081019091528251845182916122a2919063ffffffff61216416565b613572613ba4565b5060408051602081019091526713fbe85edc900000815290565b613594613ba4565b506040805160208101909152678ac7230489e80000815290565b6135b6613ba4565b6135be613ba4565b6135c66138e8565b90506135d8838263ffffffff6122ab16565b6108a85782610902565b60008080808080806135f26108f9565b905060006135fe611244565b9050808210156136bb57613618818363ffffffff61221816565b945061364061362f606461362a613909565b612218565b61098087606463ffffffff611fc616565b945088851161364f5784613651565b885b94506136706064610980613663613909565b889063ffffffff611fc616565b9250613682858463ffffffff61221816565b945061368d8361390e565b613696856139a2565b6136a6898463ffffffff61221816565b98506136b8898663ffffffff61221816565b98505b60006136c5611d6c565b905060008a1180156136d75750600081115b15613709578981116136e957806136eb565b895b94506136f685613818565b6137068a8663ffffffff61221816565b99505b613711610dcc565b61371a57600099505b8915613729576137298a613a33565b858561373b8c8763ffffffff61216416565b9850985098505050505050509193909250565b60006137598261192b565b9050806137665750612bd1565b600854613779908263ffffffff61221816565b600855506000908152600d6020526040812060010155565b613799610f18565b6001600160a01b03166342966c68826040518263ffffffff1660e01b81526004016137c4919061429f565b600060405180830381600087803b1580156137de57600080fd5b505af11580156137f2573d6000803e3d6000fd5b50505050612d6a816040518060600160405280602a81526020016144cc602a9139612e41565b612d6a816040518060400160405280601c81526020017f436f6d7074726f6c6c65723a206e6f7420656e6f75676820646562740000000081525061300d565b61385f613ba4565b8161386e576134e160016138ad565b613876613ba4565b5060408051602081019091528351815260015b838110156138a55761389b8286612615565b9150600101613889565b509392505050565b6138b5613ba4565b6040805160208101909152806138d984670de0b6b3a764000063ffffffff611fc616565b905292915050565b5190511490565b6138f0613ba4565b506040805160208101909152668e1bc9bf040000815290565b602890565b8015612bd15761391c610f18565b6001600160a01b03166340c10f196139326108e4565b836040518363ffffffff1660e01b81526004016139509291906141d8565b602060405180830381600087803b15801561396a57600080fd5b505af115801561397e573d6000803e3d6000fd5b505050506040513d601f19601f820116820180604052506124f99190810190613d87565b6139aa610f18565b6001600160a01b03166340c10f1930836040518363ffffffff1660e01b81526004016139d79291906141d8565b602060405180830381600087803b1580156139f157600080fd5b505af1158015613a05573d6000803e3d6000fd5b505050506040513d601f19601f82011682018060405250613a299190810190613d87565b50612d6a81613ad3565b613a766000613a40610dcc565b116a21b7b6b83a3937b63632b960a91b7f43616e74206d696e7420746f20656d70747920706f6f6c000000000000000000611f47565b6000613a956064610980613a88613909565b859063ffffffff611fc616565b90506000818311613aa7576000613ab7565b613ab7838363ffffffff61221816565b9050613ac28261390e565b613acb81613aec565b611926612d6e565b600654613ae6908263ffffffff61216416565b60065550565b8015612bd157613afa610f18565b6001600160a01b03166340c10f1930836040518363ffffffff1660e01b8152600401613b279291906141d8565b602060405180830381600087803b158015613b4157600080fd5b505af1158015613b55573d6000803e3d6000fd5b505050506040513d601f19601f82011682018060405250613b799190810190613d87565b50612bd1816125a0565b60405180606001604052806000815260200160008152602001600081525090565b6040518060200160405280600081525090565b80356108a8816143e3565b80516108a8816143f7565b80356108a881614400565b600060208284031215613bea57600080fd5b613bf46020614319565b90506000613c028484613c16565b82525092915050565b80356108a88161440d565b80516108a88161440d565b600060208284031215613c3357600080fd5b60006129768484613bb7565b60008060408385031215613c5257600080fd5b6000613c5e8585613bb7565b9250506020613c6f85828601613bb7565b9150509250929050565b600080600060608486031215613c8e57600080fd5b6000613c9a8686613bb7565b9350506020613cab86828701613bb7565b9250506040613cbc86828701613c0b565b9150509250925092565b60008060008060808587031215613cdc57600080fd5b6000613ce88787613bb7565b9450506020613cf987828801613bb7565b9350506040613d0a87828801613c0b565b9250506060613d1b87828801613c0b565b91505092959194509250565b60008060408385031215613d3a57600080fd5b6000613d468585613bb7565b9250506020613c6f85828601613bcd565b60008060408385031215613d6a57600080fd5b6000613d768585613bb7565b9250506020613c6f85828601613c0b565b600060208284031215613d9957600080fd5b60006129768484613bc2565b60008060408385031215613db857600080fd5b6000613dc48585613bd8565b9250506020613c6f85828601613bc2565b600060208284031215613de757600080fd5b60006129768484613c0b565b600060208284031215613e0557600080fd5b60006129768484613c16565b60008060408385031215613e2457600080fd5b6000613d768585613c0b565b600080600060608486031215613e4557600080fd5b6000613e518686613c0b565b9350506020613cab86828701613c0b565b613e6b81614386565b82525050565b613e6b8161434d565b613e6b81614358565b613e6b613e8f8261435d565b6108a2565b613e6b613e8f826108a2565b6000613eab82614340565b613eb581856108c1565b9350613ec58185602086016143a3565b9290920192915050565b613e6b8161438d565b613e6b81614398565b6000613eec82614340565b613ef68185614344565b9350613f068185602086016143a3565b613f0f816143cf565b9093019392505050565b6000613f26601b83614344565b7f536166654d6174683a206164646974696f6e206f766572666c6f770000000000815260200192915050565b6000613f5f602b83614344565b7f4d61726b65743a20436f75706f6e207472616e7366657220746f20746865207a81526a65726f206164647265737360a81b602082015260400192915050565b6000613fac602183614344565b7f536166654d6174683a206d756c7469706c69636174696f6e206f766572666c6f8152607760f81b602082015260400192915050565b6000613fef603b83614344565b7f43616e6e6f742073657420612070726f787920696d706c656d656e746174696f81527f6e20746f2061206e6f6e2d636f6e747261637420616464726573730000000000602082015260400192915050565b600061404e602a83614344565b7f4d61726b65743a20436f75706f6e20617070726f766520746f20746865207a65815269726f206164647265737360b01b602082015260400192915050565b600061409a602d83614344565b7f4d61726b65743a20436f75706f6e207472616e736665722066726f6d2074686581526c207a65726f206164647265737360981b602082015260400192915050565b60006140e9601b83614344565b7f4d61726b65743a20546f6f206561726c7920746f2072656465656d0000000000815260200192915050565b613e6b816108a2565b613e6b81614380565b60006141338284613e94565b50602001919050565b60006109028284613ea0565b60006141548286613ea0565b91506141608285613e83565b6002820191506141708284613ea0565b95945050505050565b602081016108a88284613e71565b606081016141958286613e62565b6141a26020830185613e71565b6129766040830184614115565b604081016141bd8285613e62565b6109026020830184614115565b606081016141958286613e71565b604081016141bd8285613e71565b602081016108a88284613e7a565b602081016108a88284613ecf565b602081016108a88284613ed8565b604081016141bd8285613ed8565b602080825281016109028184613ee1565b602080825281016108a881613f19565b602080825281016108a881613f52565b602080825281016108a881613f9f565b602080825281016108a881613fe2565b602080825281016108a881614041565b602080825281016108a88161408d565b602080825281016108a8816140dc565b602081016108a88284614115565b604081016141bd8285614115565b606081016142c98286614115565b6141a26020830185614115565b608081016142e48287614115565b6142f16020830186614115565b6142fe6040830185614115565b6141706060830184614115565b602081016108a8828461411e565b60405181810167ffffffffffffffff8111828210171561433857600080fd5b604052919050565b5190565b90815260200190565b60006108a882614374565b151590565b6001600160f01b03191690565b806108c1816143d9565b6001600160a01b031690565b60ff1690565b60006108a8825b60006108a88261434d565b60006108a88261436a565b60005b838110156143be5781810151838201526020016143a6565b8381111561294b5750506000910152565b601f01601f191690565b60038110612bd157fe5b6143ec8161434d565b8114612bd157600080fd5b6143ec81614358565b60038110612bd157600080fd5b6143ec816108a256fe4d61726b65743a20496e73756666696369656e7420636f75706f6e2062616c616e6365426f6e64696e673a20696e73756666696369656e74207374616765642062616c616e63654d61726b65743a20496e73756666696369656e7420636f75706f6e20617070726f76616c426f6e64696e673a20696e73756666696369656e7420746f74616c20626f6e646564436f6d7074726f6c6c65723a206e6f7420656e6f756768206f75747374616e64696e672064656274436f6d7074726f6c6c65723a206e6f7420656e6f7567682072656465656d61626c652062616c616e6365a365627a7a723158205f7c554d31fb8920d31fdfaf330ba9ed064dc985cb22bfc7d30a3fa77795dfa36c6578706572696d656e74616cf564736f6c63430005110040",
  "source": "/*\n    Copyright 2020 True Seigniorage Dollar Devs, based on the works of the Empty Set Squad and Dynamic Dollar Devs\n\n    Licensed under the Apache License, Version 2.0 (the \"License\");\n    you may not use this file except in compliance with the License.\n    You may obtain a copy of the License at\n\n    http://www.apache.org/licenses/LICENSE-2.0\n\n    Unless required by applicable law or agreed to in writing, software\n    distributed under the License is distributed on an \"AS IS\" BASIS,\n    WITHOUT WARRANTIES OR CONDITIONS OF ANY KIND, either express or implied.\n    See the License for the specific language governing permissions and\n    limitations under the License.\n*/\n\npragma solidity ^0.5.17;\npragma experimental ABIEncoderV2;\n\nimport \"@openzeppelin/contracts/math/SafeMath.sol\";\nimport \"./Market.sol\";\nimport \"./Regulator.sol\";\nimport \"./Bonding.sol\";\nimport \"./Govern.sol\";\nimport \"../Constants.sol\";\n\ncontract Implementation is State, Bonding, Market, Regulator, Govern {\n    using SafeMath for uint256;\n\n    event Advance(uint256 indexed epoch, uint256 block, uint256 timestamp);\n    event Incentivization(address indexed account, uint256 amount);\n\n    function initialize() initializer public {\n        // committer reward:\n        mintToAccount(msg.sender, 100e18); // 100 TSD to committer\n        // contributor  rewards:\n        mintToAccount(0xF240CdBAE37660ba61ca65b887b8D8091d677b31, 500e18); // 500 TSD to devnull\n        mintToAccount(0x5d5D6B228d8A2ADF2067C8a6B78960FF522224b9,  400e18); //  400 TSD to John\n        mintToAccount(0xE95bB97850092203B6a5BC6d057288Ab085465B3,  400e18); //  400 TSD to Dr. Dev\n    }\n\n    function advance() external incentivized {\n        Bonding.step();\n        Regulator.step();\n        Market.step();\n\n        emit Advance(epoch(), block.number, block.timestamp);\n    }\n\n    modifier incentivized {\n        // Mint advance reward to sender\n        uint256 incentive = Constants.getAdvanceIncentive();\n        mintToAccount(msg.sender, incentive);\n        emit Incentivization(msg.sender, incentive);\n        _;\n    }\n}\n",
  "sourcePath": "/Volumes/Data/Code/planb/true-seigniorage-dollar/protocol/contracts/dao/Implementation.sol",
  "compiler": {
    "name": "solc",
    "version": "0.5.17+commit.d19bba13.Emscripten.clang"
  },
  "schemaVersion": "3.3.3",
  "updatedAt": "2020-12-31T14:02:07.031Z",
  "networkType": "ethereum",
  "devdoc": {
    "methods": {}
  },
  "userdoc": {
    "methods": {
      "balanceOfStaged(address)": {
        "notice": "Account"
      },
      "dollar()": {
        "notice": "Global"
      },
      "epoch()": {
        "notice": "Epoch"
      },
      "name()": {
        "notice": "ERC20 Interface"
      },
      "recordedVote(address,address)": {
        "notice": "Governance"
      },
      "transfer(address,uint256)": {
        "notice": "ERC20 Interface"
      }
    }
  }
}