{
  "contractName": "Oracle",
  "abi": [
    {
      "inputs": [
        {
          "internalType": "address",
          "name": "dollar",
          "type": "address"
        }
      ],
      "payable": false,
      "stateMutability": "nonpayable",
      "type": "constructor"
    },
    {
      "constant": false,
      "inputs": [],
      "name": "setup",
      "outputs": [],
      "payable": false,
      "stateMutability": "nonpayable",
      "type": "function"
    },
    {
      "constant": false,
      "inputs": [],
      "name": "capture",
      "outputs": [
        {
          "components": [
            {
              "internalType": "uint256",
              "name": "value",
              "type": "uint256"
            }
          ],
          "internalType": "struct Decimal.D256",
          "name": "",
          "type": "tuple"
        },
        {
          "internalType": "bool",
          "name": "",
          "type": "bool"
        }
      ],
      "payable": false,
      "stateMutability": "nonpayable",
      "type": "function"
    },
    {
      "constant": true,
      "inputs": [],
      "name": "pair",
      "outputs": [
        {
          "internalType": "address",
          "name": "",
          "type": "address"
        }
      ],
      "payable": false,
      "stateMutability": "view",
      "type": "function"
    },
    {
      "constant": true,
      "inputs": [],
      "name": "reserve",
      "outputs": [
        {
          "internalType": "uint256",
          "name": "",
          "type": "uint256"
        }
      ],
      "payable": false,
      "stateMutability": "view",
      "type": "function"
    }
  ],
  "bytecode": "0x608060405234801561001057600080fd5b5060405161119238038061119283398101604081905261002f91610073565b60008054336001600160a01b031991821617909155600180549091166001600160a01b03929092169190911790556100c1565b805161006d816100aa565b92915050565b60006020828403121561008557600080fd5b60006100918484610062565b949350505050565b60006001600160a01b03821661006d565b6100b381610099565b81146100be57600080fd5b50565b6110c2806100d06000396000f3fe608060405234801561001057600080fd5b506004361061004c5760003560e01c8063a8aa1b3114610051578063ba0bba401461006f578063cd3293de14610079578063d4a3e9d71461008e575b600080fd5b6100596100a4565b6040516100669190610f3d565b60405180910390f35b6100776100b3565b005b610081610307565b6040516100669190610fb2565b61009661030d565b604051610066929190610f97565b6002546001600160a01b031690565b6000546100df906001600160a01b03163314654f7261636c6560d01b664e6f742064616f60c81b610380565b600154735c69bee701ef814a2b6a3edd4b1652cb9cc5aa6f9063c9c65396906001600160a01b031661010f6103e3565b6040518363ffffffff1660e01b815260040161012c929190610f4b565b602060405180830381600087803b15801561014657600080fd5b505af115801561015a573d6000803e3d6000fd5b505050506040513d601f19601f8201168201806040525061017e9190810190610d10565b600280546001600160a01b0319166001600160a01b03928316179081905560408051630dfe168160e01b8152905160009384931691630dfe1681916004808301926020929190829003018186803b1580156101d857600080fd5b505afa1580156101ec573d6000803e3d6000fd5b505050506040513d601f19601f820116820180604052506102109190810190610d10565b600260009054906101000a90046001600160a01b03166001600160a01b031663d21220a76040518163ffffffff1660e01b815260040160206040518083038186803b15801561025e57600080fd5b505afa158015610272573d6000803e3d6000fd5b505050506040513d601f19601f820116820180604052506102969190810190610d10565b60015491935091506001600160a01b038084169116146102b75760016102ba565b60005b60ff1660038190556103039015806102df57506001546001600160a01b038381169116145b654f7261636c6560d01b701130ee1b1b185c881b9bdd08199bdd5b99607a1b610380565b5050565b60065490565b610315610cb4565b60008054610342906001600160a01b03163314654f7261636c6560d01b664e6f742064616f60c81b610380565b600154600160a01b900460ff16156103655761035c6103f2565b9150915061037c565b61036d6104e7565b6103756106f1565b6000915091505b9091565b826103de5761038e82610713565b6101d160f51b61039d83610713565b6040516020016103af93929190610f0c565b60408051601f198184030181529082905262461bcd60e51b82526103d591600401610f66565b60405180910390fd5b505050565b60006103ed610795565b905090565b6103fa610cb4565b6000610404610cb4565b61040c6107ad565b90506000610418610863565b905060006104246103e3565b60025460405163fe575a8760e01b81526001600160a01b039283169263fe575a879261045592911690600401610f3d565b60206040518083038186803b15801561046d57600080fd5b505afa158015610481573d6000803e3d6000fd5b505050506040513d601f19601f820116820180604052506104a59190810190610d36565b905060016104b161091f565b8310156104bc575060005b6104c461091f565b60065410156104d1575060005b81156104db575060005b92945091925050509091565b6002546003546001600160a01b03909116906000901561057757816001600160a01b0316635a3d54936040518163ffffffff1660e01b815260040160206040518083038186803b15801561053a57600080fd5b505afa15801561054e573d6000803e3d6000fd5b505050506040513d601f19601f820116820180604052506105729190810190610da1565b6105e8565b816001600160a01b0316635909c0d56040518163ffffffff1660e01b815260040160206040518083038186803b1580156105b057600080fd5b505afa1580156105c4573d6000803e3d6000fd5b505050506040513d601f19601f820116820180604052506105e89190810190610da1565b90506000806000846001600160a01b0316630902f1ac6040518163ffffffff1660e01b815260040160606040518083038186803b15801561062857600080fd5b505afa15801561063c573d6000803e3d6000fd5b505050506040513d601f19601f820116820180604052506106609190810190610d54565b925092509250826001600160701b031660001415801561068857506001600160701b03821615155b8015610699575063ffffffff811615155b156106ea5760048490556005805463ffffffff831663ffffffff199091161790556001805460ff60a01b1916600160a01b179055600354156106db57826106dd565b815b6001600160701b03166006555b5050505050565b6106f9610cb4565b506040805160208101909152670de0b6b3a7640000815290565b606080826040516020016107279190610ef7565b60408051601f19818403018152919052905060205b801561077c5781516000199091019082908290811061075757fe5b01602001516001600160f81b031916156107775760010181529050610790565b61073c565b505060408051600081526020810190915290505b919050565b73a0b86991c6218b36c1d19d4a2e9eb0ce3606eb4890565b6107b5610cb4565b600254600090819081906107d1906001600160a01b0316610928565b600554600354939650919450925063ffffffff16820390600090156107f657836107f8565b845b9050610802610cb4565b6108238363ffffffff1660045484038161081857fe5b04600160701b610afd565b6005805463ffffffff191663ffffffff87811691909117909155600484905590915061085890829064e8d4a5100090610b2e16565b965050505050505090565b6000806006549050600080600260009054906101000a90046001600160a01b03166001600160a01b0316630902f1ac6040518163ffffffff1660e01b815260040160606040518083038186803b1580156108bc57600080fd5b505afa1580156108d0573d6000803e3d6000fd5b505050506040513d601f19601f820116820180604052506108f49190810190610d54565b5091509150600354600014610909578161090b565b805b6001600160701b0316600655509091505090565b6402540be40090565b6000806000610935610b55565b9050836001600160a01b0316635909c0d56040518163ffffffff1660e01b815260040160206040518083038186803b15801561097057600080fd5b505afa158015610984573d6000803e3d6000fd5b505050506040513d601f19601f820116820180604052506109a89190810190610da1565b9250836001600160a01b0316635a3d54936040518163ffffffff1660e01b815260040160206040518083038186803b1580156109e357600080fd5b505afa1580156109f7573d6000803e3d6000fd5b505050506040513d601f19601f82011682018060405250610a1b9190810190610da1565b91506000806000866001600160a01b0316630902f1ac6040518163ffffffff1660e01b815260040160606040518083038186803b158015610a5b57600080fd5b505afa158015610a6f573d6000803e3d6000fd5b505050506040513d601f19601f82011682018060405250610a939190810190610d54565b9250925092508363ffffffff168163ffffffff1614610af35780840363ffffffff8116610ac08486610b5f565b516001600160e01b031602969096019563ffffffff8116610ae18585610b5f565b516001600160e01b0316029590950194505b5050509193909250565b610b05610cb4565b6040518060200160405280610b2385670de0b6b3a764000086610bda565b905290505b92915050565b610b36610cb4565b604080516020810190915283518190610b23908563ffffffff610c0616565b63ffffffff421690565b610b67610cc7565b6000826001600160701b031611610b905760405162461bcd60e51b81526004016103d590610f87565b6040805160208101909152806001600160701b0384166dffffffffffffffffffffffffffff60701b607087901b1681610bc557fe5b046001600160e01b0316815250905092915050565b6000610bfc82610bf0868663ffffffff610c0616565b9063ffffffff610c4016565b90505b9392505050565b600082610c1557506000610b28565b82820282848281610c2257fe5b0414610bff5760405162461bcd60e51b81526004016103d590610f77565b6000610bff83836040518060400160405280601a81526020017f536166654d6174683a206469766973696f6e206279207a65726f00000000000081525060008183610c9e5760405162461bcd60e51b81526004016103d59190610f66565b506000838581610caa57fe5b0495945050505050565b6040518060200160405280600081525090565b60408051602081019091526000815290565b8051610b2881611044565b8051610b288161105b565b8051610b2881611064565b8051610b288161106d565b8051610b2881611076565b600060208284031215610d2257600080fd5b6000610d2e8484610cd9565b949350505050565b600060208284031215610d4857600080fd5b6000610d2e8484610ce4565b600080600060608486031215610d6957600080fd5b6000610d758686610cef565b9350506020610d8686828701610cef565b9250506040610d9786828701610d05565b9150509250925092565b600060208284031215610db357600080fd5b6000610d2e8484610cfa565b610dc881610fcd565b82525050565b610dc881610fd8565b610dc8610de382610fdd565b610fea565b610dc8610de382610fea565b6000610dff82610fc0565b610e098185610790565b9350610e1981856020860161100e565b9290920192915050565b6000610e2e82610fc0565b610e388185610fc4565b9350610e4881856020860161100e565b610e518161103a565b9093019392505050565b6000610e68602183610fc4565b7f536166654d6174683a206d756c7469706c69636174696f6e206f766572666c6f8152607760f81b602082015260400192915050565b6000610eab601783610fc4565b7f4669786564506f696e743a204449565f42595f5a45524f000000000000000000815260200192915050565b80516020830190610ee88482610eee565b50505050565b610dc881610fea565b6000610f038284610de8565b50602001919050565b6000610f188286610df4565b9150610f248285610dd7565b600282019150610f348284610df4565b95945050505050565b60208101610b288284610dbf565b60408101610f598285610dbf565b610bff6020830184610dbf565b60208082528101610bff8184610e23565b60208082528101610b2881610e5b565b60208082528101610b2881610e9e565b60408101610fa58285610ed7565b610bff6020830184610dce565b60208101610b288284610eee565b5190565b90815260200190565b6000610b2882610ff9565b151590565b6001600160f01b03191690565b90565b6001600160701b031690565b6001600160a01b031690565b63ffffffff1690565b60005b83811015611029578181015183820152602001611011565b83811115610ee85750506000910152565b601f01601f191690565b61104d81610fcd565b811461105857600080fd5b50565b61104d81610fd8565b61104d81610fed565b61104d81610fea565b61104d8161100556fea365627a7a72315820edfa57413b61e26574e226d252178295c56d4227e7fc8569d26df725523f8ce26c6578706572696d656e74616cf564736f6c63430005110040",
  "source": "/*\n    Copyright 2020 True Seigniorage Dollar Devs, based on the works of the Empty Set Squad and Dynamic Dollar Devs\n\n    Licensed under the Apache License, Version 2.0 (the \"License\");\n    you may not use this file except in compliance with the License.\n    You may obtain a copy of the License at\n\n    http://www.apache.org/licenses/LICENSE-2.0\n\n    Unless required by applicable law or agreed to in writing, software\n    distributed under the License is distributed on an \"AS IS\" BASIS,\n    WITHOUT WARRANTIES OR CONDITIONS OF ANY KIND, either express or implied.\n    See the License for the specific language governing permissions and\n    limitations under the License.\n*/\n\npragma solidity ^0.5.17;\npragma experimental ABIEncoderV2;\n\nimport '@uniswap/v2-core/contracts/interfaces/IUniswapV2Factory.sol';\nimport '@uniswap/v2-core/contracts/interfaces/IUniswapV2Pair.sol';\nimport '../external/UniswapV2OracleLibrary.sol';\nimport '../external/UniswapV2Library.sol';\nimport \"../external/Require.sol\";\nimport \"../external/Decimal.sol\";\nimport \"./IOracle.sol\";\nimport \"./IUSDC.sol\";\nimport \"../Constants.sol\";\n\ncontract Oracle is IOracle {\n    using Decimal for Decimal.D256;\n\n    bytes32 private constant FILE = \"Oracle\";\n    address private constant UNISWAP_FACTORY = address(0x5C69bEe701ef814a2B6a3EDD4B1652CB9cc5aA6f);\n\n    address internal _dao;\n    address internal _dollar;\n\n    bool internal _initialized;\n    IUniswapV2Pair internal _pair;\n    uint256 internal _index;\n    uint256 internal _cumulative;\n    uint32 internal _timestamp;\n\n    uint256 internal _reserve;\n\n    constructor (address dollar) public {\n        _dao = msg.sender;\n        _dollar = dollar;\n    }\n\n    function setup() public onlyDao {\n        _pair = IUniswapV2Pair(IUniswapV2Factory(UNISWAP_FACTORY).createPair(_dollar, usdc()));\n\n        (address token0, address token1) = (_pair.token0(), _pair.token1());\n        _index = _dollar == token0 ? 0 : 1;\n\n        Require.that(\n            _index == 0 || _dollar == token1,\n            FILE,\n            \"Døllar not found\"\n        );\n    }\n\n    /**\n     * Trades/Liquidity: (1) Initializes reserve and blockTimestampLast (can calculate a price)\n     *                   (2) Has non-zero cumulative prices\n     *\n     * Steps: (1) Captures a reference blockTimestampLast\n     *        (2) First reported value\n     */\n    function capture() public onlyDao returns (Decimal.D256 memory, bool) {\n        if (_initialized) {\n            return updateOracle();\n        } else {\n            initializeOracle();\n            return (Decimal.one(), false);\n        }\n    }\n\n    function initializeOracle() private {\n        IUniswapV2Pair pair = _pair;\n        uint256 priceCumulative = _index == 0 ?\n            pair.price0CumulativeLast() :\n            pair.price1CumulativeLast();\n        (uint112 reserve0, uint112 reserve1, uint32 blockTimestampLast) = pair.getReserves();\n        if(reserve0 != 0 && reserve1 != 0 && blockTimestampLast != 0) {\n            _cumulative = priceCumulative;\n            _timestamp = blockTimestampLast;\n            _initialized = true;\n            _reserve = _index == 0 ? reserve1 : reserve0; // get counter's reserve\n        }\n    }\n\n    function updateOracle() private returns (Decimal.D256 memory, bool) {\n        Decimal.D256 memory price = updatePrice();\n        uint256 lastReserve = updateReserve();\n        bool isBlacklisted = IUSDC(usdc()).isBlacklisted(address(_pair));\n\n        bool valid = true;\n        if (lastReserve < Constants.getOracleReserveMinimum()) {\n            valid = false;\n        }\n        if (_reserve < Constants.getOracleReserveMinimum()) {\n            valid = false;\n        }\n        if (isBlacklisted) {\n            valid = false;\n        }\n\n        return (price, valid);\n    }\n\n    function updatePrice() private returns (Decimal.D256 memory) {\n        (uint256 price0Cumulative, uint256 price1Cumulative, uint32 blockTimestamp) =\n        UniswapV2OracleLibrary.currentCumulativePrices(address(_pair));\n        uint32 timeElapsed = blockTimestamp - _timestamp; // overflow is desired\n        uint256 priceCumulative = _index == 0 ? price0Cumulative : price1Cumulative;\n        Decimal.D256 memory price = Decimal.ratio((priceCumulative - _cumulative) / timeElapsed, 2**112);\n\n        _timestamp = blockTimestamp;\n        _cumulative = priceCumulative;\n\n        return price.mul(1e12);\n    }\n\n    function updateReserve() private returns (uint256) {\n        uint256 lastReserve = _reserve;\n        (uint112 reserve0, uint112 reserve1,) = _pair.getReserves();\n        _reserve = _index == 0 ? reserve1 : reserve0; // get counter's reserve\n\n        return lastReserve;\n    }\n\n    function usdc() internal view returns (address) {\n        return Constants.getUsdcAddress();\n    }\n\n    function pair() external view returns (address) {\n        return address(_pair);\n    }\n\n    function reserve() external view returns (uint256) {\n        return _reserve;\n    }\n\n    modifier onlyDao() {\n        Require.that(\n            msg.sender == _dao,\n            FILE,\n            \"Not dao\"\n        );\n\n        _;\n    }\n}",
  "sourcePath": "/Volumes/Data/Code/planb/true-seigniorage-dollar/protocol/contracts/oracle/Oracle.sol",
  "compiler": {
    "name": "solc",
    "version": "0.5.17+commit.d19bba13.Emscripten.clang"
  },
  "schemaVersion": "3.3.3",
  "updatedAt": "2020-12-31T12:42:20.904Z",
  "devdoc": {
    "methods": {}
  },
  "userdoc": {
    "methods": {
      "capture()": {
        "notice": "Trades/Liquidity: (1) Initializes reserve and blockTimestampLast (can calculate a price)                  (2) Has non-zero cumulative prices     * Steps: (1) Captures a reference blockTimestampLast       (2) First reported value"
      }
    }
  }
}